:400000000080002011000000311700003117000008B5044B1A6803F53F5302331A6001F0A7FB00BFFA46004010B5054C237833B9044B13B10448AFF300800123237010BD44
:400040008881FF1F0000000080560000084B10B51BB108490848AFF300800848036803B910BD074B002BFBD0BDE81040184700BF000000008C81FF1F80560000C880FF1FD6
:400080000000000008B5034A13680133136001F05DFD08BD9885FF1F08B502F0E1F902F0E7F9C3B21B2B0DD1012002F08BF901220C4B1A7000220C4B1A700C4B1A680C4B07
:4000C0001A6008BD074B1B785BB107490A78531CDBB20B7007498854642B02D90022024B1A7008BD9184FF1FA481FF1F9885FF1F8C84FF1FAC85FF1F70B504460D461646E7
:400100001146284602F056FF214603F019FA50B93146284602F050FF0146204603F010FA18B1012070BD012070BD002070BD00BF07230CE040FA03F212F0010F03D0302280
:4001400001F8012B02E0312201F8012B013B002BF0DA00230B7070472DE9F04FAFB08346FA2001F061FB00247DE1C4EB04114A001A44124931F8122002B101200133DBB25D
:4001800001E0002003461D2BEFD9002800F069810B4B1B680B4AA2FB03232546C4EB04118A0006490A44518E074A1288C2EB93130B441FFA83FA00266CE000BF3482FF1F95
:4001C0009885FF1FD34D62102E86FF1FB700C5EB051253003B44A74A32F81380B8F1000F56D0404602F092FB0022A34B02F01EFD02F08CFE81460890BBF1000F15D1C5EB36
:40020000051253003B449D4A32F8130002F07EFB0022994B02F00AFD02F078FE984A01464846FFF769FF002832D04FEA0519C5EB090253003B44914A22F81380192001F00A
:40024000F3FA7A1C8B4BC5EB090041000A4433F81210BA1C4000024433F812200337074433F8173087480078069005F131000590049303920291089802F05AFBCDE90001EA
:40028000524681490EA803F0D9FE0EA802F018F90136F6B2052E99D9C5EB05129300754A13441E8F002E00F0AF80304602F02EFB0022714B02F0BAFC02F028FE0746BBF18D
:4002C000000F67D1C5EB051293006C4A1344188F02F01CFB0022684B02F0A8FC02F016FE674A01463846FFF707FF002852D14FEA0518C5EB080293005E4A1344988E02F0B8
:4003000005FB0022614B02F091FCCDE90801C5EB08084FEA8803594A1344988E02F0F6FA00225A4B02F082FC02F0F0FD8046DDE9080102F0EBFD524A4146FFF7DDFE48BBAF
:400340004FEA0518C5EB080293004A4A1344D88E02F0DCFA00224D4B02F068FCCDE90801C5EB08084FEA8803444A1344D88E02F0CDFA0022454B02F059FC02F0C7FD8046F5
:40038000DDE9080102F0C2FD3D4A4146FFF7B4FE002839D02A01511B8B00364901EB0308B8F83410354A13449986B8F83620DA861E87642001F038FAB8F83460B8F8360079
:4003C000304B1B78079305F13103069302F09EFA00222E4B02F02AFCCDE90401304602F095FA0022294B02F021FCCDE90201384602F09EFACDE90001524625490EA803F0D7
:400400001DFE0EA802F05CF8C5EB05129300194A1344588F28B3BBF1000F07D1C5EB05129300164A13445B8F98421AD0C5EB05129300124A134458870BA9C0B2FFF778FEFF
:40044000104B1B780193313500950BAB524611490EA803F0F3FD142001F0E6F90EA802F02FF80134E4B2092C7FF68BAE2FB0BDE8F08F00BF3482FF1F000059403086FF1F3A
:40048000CDCC0C3F9284FF1F8856000000002440AC560000D05600002DE9F04FB5B0B84F30233B70B74D00242C70B74B1C70B74E3460B74B1C7027230293112301930223B6
:4004C000009303231422B349B34803F0B7FD41F2707001F0A9F902F05BF84030387000F01BFD4FF4FA6000F06BFF336803F51C531033AA4A1360AA4B1C70AA4B1C7072B697
:4005000001F0ECFA01F014FBA74801F0F7FA01F007FA62B6FF2001F06DFA012001F064FA01F08AFF02F01AF8A04801F0FDFF2C7001F0A8FF01F016FF01F052FD41F288306A
:4005400001F072F99A4B1B78002B00F0DA818D4B1B78002B00F0D581002295490A709549CA54884B1A700B78313BDBB2012B00F2C8814FF4FA7001F057F9012001F022FF7E
:4005800000F00EFB01210DA800F060FA00F086FA01F0A8FF7A4B1B787F4A87490FA803F04DFD0FA801F08CFF824B1B78312B04D10020FFF7D1FD00261EE00120FFF7CCFD88
:4005C000FA2001F031F900230FE06E4A02EB83027A49516000215162032B04D8694A02EB83027749D1640133DBB2072BEDD90022644B83F85C20012601F0D0FF0001C4B23F
:400600002FA92046FFF794FD00238DF8C0305C4B1B782FAA6B490FA803F010FD26B9594B93F85C309C4205D0564B83F85C400FA801F046FF002448E0204601F0A3FE142075
:4006400001F0F2F801F052FD0546A0F59C33803B5D4A934200D90025284601F033FD02F067F945A3D3E9002302F0B6F90022574B02F0B2F901F0A8FF0022544B02F0D6FAB6
:4006800002F044FC074636B93E4B03EB8403D96C02F02EFFB8B9384602F04AF9384B1B7802930194009502460B4649490FA803F0C5FC142001F0B8F80FA801F001FF314BE2
:4006C00003EB8403DF640134E4B2032CB4D90024B5E0204600F0D0FB054610F0070F7FD1204600F0F7FB804689460022394B02F0E5FB002800F0A1800022374B40464946E9
:4007000002F0FAFB002800F09880002200234046494602F0C9FB002840F08F806EB9194B03EB84035D684046494602F0EFFB4FF07C522946FFF7E0FCB8B1124D05EB8405E6
:400740004046494602F0E2FB6860142001F06CF80B4B1B780193009442464B461F490FA803F06CFC0FA801F0ABFE322001F05CF863E000BFAFF30080A245B6F3FDD4F03F04
:400780009284FF1FA481FF1FA885FF1F9885FF1F9384FF1FE45600002882FF1F9485FF1FA985FF1F9084FF1F85000000990000009184FF1FAC85FF1FFC5600000000A0C1FD
:4007C0000AD7233C0C570000C0090E00000024401C5700000000594000003EC038570000C3B2FF2B29D010F0010F09D0844B1B78224684490FA803F021FC0FA801F060FE9D
:4008000015F0020F09D07E4B1B7822467E490FA803F014FC0FA801F053FE15F0040F09D0774B1B78224679490FA803F007FC0FA801F046FE322000F0F7FF0134E4B2072C4C
:400840007FF647AF002449E00E9F07EBC4073868796800F091F9054609900BAB3868796803C34EB96A4B03EB84034FF07C52596A2846FFF741FC60B3142000F0D5FF9DF838
:400880002E509DF82F709DF830809DF831909DF832A09DF833B0099802F04AF8584B1B780693CDF814B0CDF810A0CDF80C90CDF808800197009502460B4656490FA803F0AD
:4008C000BDFB0FA801F0FCFD514B03EB8403099A5A62322000F0A8FF0134E4B29DF834309C42B1D3142000F09FFF4B4801F0E8FD00244A4B1C70322000F096FF204601F082
:4009000061FD474B1B78B3B1464B1B68464A12689B1AB3F5FA6F0ED90024414B1C703C4B1C703E4B1C70414801F0CAFD01F0AAFD204601F047FD3E4B1B78012B0ED013B143
:40094000022B3CD0FEE5374A11683A4A126891427FF6F8AD0133364A1370F3E5012001F031FD00220BE0344B1B78C3EB031302EB43030020314921F813000132D2B21D2A4D
:40098000F1D92D4C22782E4B02F13101197003215970002159801E219980C2EB0212274901EB82029A6093E8070000F053FB204A137801331370237801332370C2E500F0F4
:4009C00093FC00F003FD00287FF4BCAD0022184B1A70194B1B78092B7FF6B4AD114B1B68184AA2FB0312920917490A8003F590235833104A1360104B187001F0E3FCA1E5B0
:400A00009284FF1F5057000088570000C0570000A481FF1FF457000020580000AC85FF1F9184FF1F9885FF1F8C84FF1F28580000A985FF1F9485FF1F9084FF1F3482FF1FEB
:400A40009C85FF1FD34D62102E86FF1F10B5044639B10848002300F8013F00F0D7F9064B1860044B5B782370034B1B686360204610BD00BFCC80FF1F0482FF1F10B582B066
:400A80008DE8030000F08CF89DE8030000F094F9442000F0E1F802B010BD00BF10B5002409E0074B1B6803EBC40318685968FFF7E5FF0134E4B2034B5B789C42F1D310BD08
:400AC0000482FF1FCC80FF1F30B585B000F0E8F8002409E000F0D4F804AB234403F80C0C00F0E4F805460134082CF3DD9DF805309DF80400D5B903B9D0B113F0080F0CD098
:400B000040EA0320404280B202F00AFB4FF0765102F05AFB00F100400BE040EA032002F0FFFA4FF0765102F04FFB02E0024800E0014805B030BD00BF0000C8C208B50D4B85
:400B40001B781BB95F2000F06FFE08BD012B03D1BE2000F069FE08BD022B04D14FF4BE7000F062FE08BD032B03D140F2EE2000F05BFE08BDCC80FF1F10B582B08DE80300C2
:400B8000FFF7DCFF00F00CF89DE8030000F014F9BE2000F061F8FFF797FF02B010BD00BF08B5002001F0FAFB4FF4F07000F052FE012001F0F3FB462000F04CFE01F0FAFBCE
:400BC00040B90022064B1A704FF4D77000F042FE012008BD0122024B1A70002008BD00BF9588FF1F08B5002001F0D8FB0F2000F031FE012001F0D2FB322000F02BFE08BD88
:400C000008B5002001F0CAFB3C2000F023FE012001F0C4FB052000F01DFE08BD08B510B1FFF7E0FF08BDFFF7EBFF08BD10B5002001F0B4FB052000F00DFE012001F0AEFBD1
:400C4000052000F007FE01F0B5FB04463C2000F001FE204610BD00BF38B5054600240BE045FA04F313F0010F02D0FFF7BBFF01E0FFF7C6FF0134E4B2072CF1D938BD00BF08
:400C800038B500252C4606E0FFF7D0FFA0400543EDB20134E4B2072CF6D9284638BD00BF0022014B1A7070479488FF1F034A13785840034B185C1070704700BF9488FF1F04
:400CC000405800002DE9F0410022374B1A70374B1B78002B56D1FFF763FF28B9344B1870324B1870BDE8F081F020FFF7B5FF01240027B8462646FFF799FF0546FFF796FF51
:400D0000012D01D101282FD0854210D1284B1D78AE4206D2274BDB5D1C4214BF0125002503E0AE4214BF0025012505B9B046012D04D1204AD35D2343D35504E01D4AD35DA2
:400D400023EA0403D3552846FFF768FF0136F6B2640014F0FF0405D1164BD85DFFF7A6FF01370124072FC6DD402E0DD90E4B1B7863B95FFA88F30E4A13704BB901200B4B5F
:400D8000187006E0002004E0002002E0002000E0012010B1074B1B7823B90020044B1870024B1870BDE8F0819488FF1F8888FF1F9688FF1F8C88FF1F10B582B002AB03E9D4
:400DC0000300FFF7EDFE5520FFF746FF002406E002AB234413F8080CFFF73EFF0134072CF6DD002002B010BD08B50023034A1370034A1370FFF766FF08BD00BF9688FF1F7A
:400E00008888FF1F08B5FFF75DFF08BD70B582B004460022154B1A70FFF7E6FF1DE0013B00E00723002BFADA072306E0104AD15C02AA1A4402F8081C013B002BF6DA0B4B9A
:400E40001A78511C19700B4D05EBC2066B4603CB45F832007160FFF7D5FF0028E1D1034B1B782370034802B070BD00BF0882FF1F8C88FF1F9888FF1F38B5012303FA00F004
:400E8000C043C0B200F0B6FDFA2000F0E3FC002000F0AAFD032000F0DDFC00251F2412E0002000F0A1FD012000F0D4FC6D0000F0B5FD08B145F00105012000F095FD0320DC
:400EC00000F0C8FC013C002CEADAFF2000F092FD284638BD08B5FFF7CFFF10F0050F04D000F0070001F012FD08BD002805DA80146FEA80406FEA904000E0801401F006FDA6
:400F00000022024B01F068FD08BD00BF0000D03F41EA0020704700BF0023054A1370054A1370054A1380054A1380054A13807047048AFF1FEC88FF1FEE88FF1FF888FF1F04
:400F4000F088FF1F70B50026134B1E7010E0124C257800F001FD114B58552278985C01F0A3FA23780133DBB22370FD2B00D9012600F0FCFC0028EAD1094A1388013313800F
:400F800036B1084A1388013313806FF0020070BD014B93F9000070BD048AFF1FFC88FF1FF088FF1FEE88FF1F10B400244FF6FF7312E00D4A125D5340012209E003F00101A0
:400FC0005B0819B183F4204383F001030132D2B2082AF3D90134E4B28442EAD31A0242EA132080B210BC7047FC88FF1F70B5144D2C782046FFF7D8FF124E030A3355013417
:40100000E4B2305501342C70012001F0B5FA142000F00AFC2978304600F0C0FC322000F003FC002001F0A8FA00232B70064B1A68064B1A60064A13880133138070BD00BF28
:40104000048AFF1FFC88FF1F9885FF1FF488FF1FF888FF1F70B584B004AB03E90700594B1B78002B40F0A380574B1C78002C40F0A1809DF80400431EDBB2F62B00F29D8095
:401080000399524B1960524A10709DF805305370BDF80600050A9570D070013B0F2B7BD8DFE803F008080808121D7A7A7A7A7A7A7A7A2759BDF80820110A454B19715A71C7
:4010C0000622444B1A7067E00B8803B1FF24404B1C7100225A7106223E4B1A705CE00B881B0A3B4A13710B7853710622394B1A7052E0BDF80830C3F307146400E4B213F057
:401100000F0F01D00134E4B2180A314A10715371947107222F4B1A70002318E013F0010F07D02C4A1278580811F810502848855407E0284A10785A0831F81220120A244D9F
:401140002A54244802780132027001339BB2A2B29342E3D320E0BDF80860330A1C4A1371F3B253715B00937107221A4B1A70002210E01848037831F81240240A144DEC54AB
:401180000133DBB2037011F81240EC5401330370013292B2B242ECD300F014FCFFF726FF0122094B1A7000200B4B187007E06FF0010004E04FF0FF3001E06FF0020004B0E6
:4011C00070BD00BFFC89FF1FF288FF1FE888FF1FFC88FF1F048AFF1F068AFF1F10B51A4B1B78981E194A145C013BD35C43EA0424C0B2FFF7D9FE844205D0154A1388013330
:401200001380FF2010BD114B597811F0800F0CD00F4A138801331380FB2010BD0D4AD25C914207D00133DBB200E00023072BF5D9002300E001232BB9054A13880133138044
:40124000012010BD002010BD048AFF1FFC88FF1FEE88FF1F4059000070B500241EE014F0010F0CD0104B1E686508E31C16F815100E4AD05CFFF74CFE26F815000CE00A4B29
:401280001D68660835F81600E31C084AD15C000AFFF73EFE25F816000134E4B2034B9B789C42DCD370BD00BFE888FF1FFC88FF1F70B5002403250DE0094B1E686A1C094B24
:4012C000995C585DFFF724FE26F814000235EDB20134E4B2034B9B78B4EB530FECD370BDE888FF1FFC88FF1F08B500F03FFB2A4B1A682A4B1B68D31A294909888B420AD965
:401300000020284B1870FF22274B1A70274A13880133138008BD00283AD0254B1B78984205D0234B1870234B1A60002008BD214B1B68D21A042A2DD900221D4B1A70FFF71D
:4013400001FE052807DC0022164B1A70174A13880133138008BDFFF741FF20B10021114A117040B208BD144B5B78013B032B08D8DFE803F002020505FFF76EFF01E0FFF790
:4013800097FF0022074B1A700C4B93F9000008BD002008BD002008BD9885FF1FF488FF1FFA89FF1FF288FF1F068AFF1FEE88FF1FEC88FF1F008AFF1FFC88FF1F048AFF1F4F
:4013C000014B1880704700BFFA89FF1F014B1878704700BFF288FF1FFEE700BFF0B40022174611E050F82760F3B226F0FF0608E001EB420511F812406D78A5550132013BFD
:40140000DBB2002BF4D10137252FEBD9F0BC7047064B1B78DBB203F00701054A11701B09013213704422034B1A707047CF0100496E5800407658004008B50A46002102F024
:40144000C8F808BD08B502F0B9F808BD38B50024314B1C80502202331A704FF49C7202331A8018232D490B7002310A802C4A137004222C492C48FFF7E5FF02222B4B1A7059
:4014800008224FF040231A70032103F500731970274B1B78DBB227490B70274B1A8041F25122023B1A8019250CE0244B1B7803F0010343EA440404F003044FF4F07001F091
:4014C00073F8013D0DB1032CEFD115B90320FFF783FF1B4B4FF480721A8007221A70002218490A704820023108701A700222033B1A7004220A331A70134A137843F00703AD
:401500001370013A137843F001031370013A137843F08003137038BD80400040864000408A400040F80A0048004100400043004008010049A1460040224200402542004092
:401540000440004006400040A2430040032816D810B44000C0B20A4B53F820101A1892F820400A7822430A700130C0B253F82020184490F8201013780B43137010BC70473F
:4015800048590000032818D810B44000C0B20B4B53F820101A1892F820400A7822EA04020A700130C0B253F82020184490F82010137823EA0103137010BC70474859000079
:4015C000012809D8054B03EB8002926A184490F8301013780B431370704700BF4859000001280AD8054B03EB8002926A184490F83010137823EA010313707047485900002C
:4016000038B572B600240BE0364863001A19510001440A46098F506BFFF70EFF0134E4B2092CF1D900240CE02E48A20011194B000344B3F87820596F186FFFF703FF0134C9
:40164000E4B2012CF0D928494FF09040FFF7C6FE0A24264B1C70264A137843F0020313701032137843F002031370224D2B7843F040032B70A2F58632513A137843F010036D
:40168000137022461C491D48FFF7DCFE22461C491C48FFF7D7FE22461B491C48FFF7D2FE22461B491B48FFF7CDFE22461A491B48FFF7C8FE1A4A137843F008031370194CC4
:4016C00061232370FFF7C2FE812323700122164B1A70FFF79DFE0E2229461448FFF7B2FE38BD00BF48590000980000488358004003500140A0430040BC0A00480051004000
:40170000C80A0048C0510040D40A004810510040E00A004820510040EC0A004830510040224300400048004004000840B043004008B501F00FFF03680C2B00D1FEE7FEE7F0
:4017400008B5094B1A681044084BC31AB3F5004F02DC054B186005E001F0FCFE0C2303604FF0FF32104608BDD080FF1F188AFF1F08B5104E104D16E029686B68AC68002292
:4017800004E051F8040B43F8040B0432A242F8D1E868002203E0002143F8041B04328242F9D11035013E002EE6D101F0D9FEFEF773FEFEE701000000505B000008B5104AED
:4017C000104B1A60104A136843F40073136000230AE0032B03D80D4A52F8231000E00C490C4A42F8231001332F2BF2D90A4B1A780A4B1A70074A0A4B1A60FFF701FF08BD46
:401800000004FA050CED00E014ED00E000000000311700000080FF1FBC760040C080FF1F08ED00E001BE704710B5044605E0084B186800F0B9FEA4F50044B4F5004FF6D8D9
:40184000034B586800FB04F000F0AEFE10BD00BFD480FF1F08B5034B1B7A00FB03F000F0A3FE08BDD480FF1F70B504460E46074B1D681F2802D90020FFF7D4FF04F01F04BF
:40188000103455F8240045F8246070BD08ED00E038B504460D46072902D90020FFF7C2FF1F2C02D90020FFF7BDFF04F01F0000F1604000F564406D01EDB2057038BD00BFD9
:4018C0007222084B1A70202203331A700622A3F5AE731A70472210331A7001224F331A70704700BF8865004010B500F065FE04460A4A137843F0200313700332137843F0F5
:4019000010031370FD3A137843F01003137000F077F8204600F054FE10BD00BF9865004008B5054B1B7823B9FFF7CAFF0122024B1A70FFF7D9FF08BD0982FF1F014B187869
:40194000704700BF48650040024B187800F07F00704700BF6B65004010B5FFF7F5FF0402FFF7ECFF204380B210BD00BF044B1B7813F0200F01D0012070470020704700BF28
:401980006B650040034B1B7813F0040FFAD1024B187070476E6400404E640040084B1B7833B97047305DFFF7EDFF0134E4B203E070B50D4606460024AC42F3D370BD00BF97
:4019C0000982FF1F08B500F0F7FD064B1A7842F001021A701A7802F0FE021A7000F0F0FD08BD00BF9E640040014B1870704700BF7D640040014B1870704700BF7965004077
:401A0000054A137843F0020313701032137843F002031370704700BFA2430040014B1878C009704721510040084A137843F0010313701032137843F00103137002F64D324B
:401A4000137843F001031370704700BFA3430040014B1870704700BF034F0040014B1880704700BF044F0040014B1880704700BF064F004008B5164A137803F001031370AB
:401A80000232137803F0FC031370124B1A7802F0CF021A701A7842F030021A701A7802F0F0021A701A7842F00F021A700A4A137843F00103137045F6BF50FFF7CFFF45F6F5
:401AC000BF50FFF7D1FF0820FFF7C2FF08BD00BF004F00400B4F0040014F004008B5054B1B7823B9FFF7C6FF0122024B1A70FFF79BFF08BD0B82FF1F704700BF014B1B687F
:401B00009864704708ED00E04001C0B2014B1870704700BF02E400E00422014B1A60704700E100E00422014B1A60704780E100E008B5FFF7F7FF0448FFF7E0FF0720FFF72B
:401B4000E3FFFFF7E9FF08BDF91A00000422014B1A60704780E200E038B59DF810506C1EE4B2012C51D8013809282ED8DFE800F0052D2D052D2D0F192D230F2B03D92548B0
:401B8000007840B222E02448007840B21EE00F2B03D92248007840B218E02148007840B214E00F2B03D91F48007840B20EE01E48007840B20AE00F2B03D91C48007840B2C9
:401BC00004E01B48007840B200E0002001EB401101FB02F1C90B8AB20D2B0BD8C3F10E0289B211418AB2691E124800EB810101338B7005E06B1E0F4901EB83030F21997062
:401C0000013D0C4B23F8252038BD0020FFF70AFE38BD00BF180100491C010049190100491D0100491A0100491E0100491B0100491F0100490C82FF1FF8B5074600F0BCFC6E
:401C400006460D4D2B7843F003032B700B4C237843F0030323700A4B1F700320FFF7FAFD2B7803F0FC032B70237803F0FC032370304600F0A5FCF8BDF8460040F94600408C
:401C80009258004070B504460022604B1A7201285BD174225E4B1A70002502331D70092201331A707F235B4A13700132157001321370594B1D7001331D7001331D70012632
:401CC0000A331E70502203F527631A70072201331A70292201331A7001331D70552203331A705A2201331A7001331D70022202331A70122201331A70282201331A70EB22CE
:401D000001331A704420FFF797FF5822434B1A7001331D7005331E7001331E7001331D700A2201331A70284600F008FA3C4A3D4B1A603146042000F025FA3146112000F045
:401D4000A5FA39491D20FFF78FFD022C5DD138222F4B1A70042202331A70062201331A70002401331C7001331C703F2201331A7002331C7001331C7001331C7001250A3397
:401D80001D70502203F527631A70272201331A702C2201331A7001331C70552203331A705A2201331A70052601331E7002331D70112201331A70192201331A70972201334E
:401DC0001A704420FFF738FF5822144B1A7001331C7005331E70022201331A7001331C7001331C70204600F0A9F94FF47A420D4B1A602946304600F0C5F92946252000F07D
:401E000045FA0A491D20FFF72FFD70BD0C82FF1F004E0040044E0040084E004094580040AB9A02000C8AFF1F1521000019210000F0B583B02C4D01272F702C4E00247472EF
:401E4000102000F08DF9102000F00EFA07211D20FFF71EFD0422264B1A7001331C7007331C70244A137843F018031370224B1C7003F2F5231C7001331C700A22A3F209335E
:401E80001A7001331C7002331C705B2205331A705E2201331A7004331C701423174A137000974FF4004247F602710320FFF754FE0223009310234FF4004249F2DA01204699
:401EC000FFF74AFE2B78013B06EB83039A780C4B1A702B78013B36F823200A4B1A802878FFF7D0FE03B0F0BDE480FF1F0C82FF1F96580040075B004093580040014E0040A0
:401F00000E4E00400C4E004070B500F055FB06462A4B1B782A4B1A7842F001021A701A7842F010021A7010331A7842F001021A701A7842F010021A70224D2B7843F002034E
:401F40002B70214C237843F0020323701F4A137843F0030313700320FFF77CFC2B7803F0FD032B70237803F0FD032370184A137843F0060313707A22164B1A70164A137842
:401F800043F0010313701032137843F0010313700F3A137843F0010313701032137843F0010313704FF000530C4A1360A2F5C0721360304600F004FB70BD00BFE480FF1F61
:401FC000AA430040F8460040F9460040915800407758004082580040A143004080E200E008B5084B9B7A4BB9064BDB7A13F0FF0F01D1FFF71DFF0122024B9A72FFF784FF46
:4020000008BD00BF0C82FF1F024A137843F0010313707047004E0040024A137803F0FE0313707047004E0040094B1B7A13F0FF0F03D0074B5B7ADBB203E0064B1B7803F0CC
:402040000103012B01D00028EED01846704700BF0C82FF1F014E0040154B1B7803F00303012B07D8134B1888023B1B889BB243EA004013E0022B0AD10E4B1888023B1B7817
:4020800043EA00430C4A107843EA002006E00B4B188883B2074A108843EA0040084B1B7A13F0FF0F02D00022054B5A72704700BF144E0040124E0040114E0040104E004020
:4020C0000C82FF1F10B5074BDB68C01A01F028F80446054B186801F023F80146204601F027F910BD0C82FF1F0C8AFF1F10B5084A137843F004031370FFF786FF0020FFF7EE
:4021000093FFFFF7A9FF0446FFF786FF204610BD014E0040704700BF704700BF10B5002404E02046FFF75CFA0134E4B2012CF8D9FF22014B1A7010BDE580FF1F10B504465E
:40214000FFF7ECFF2046FFF73BFA014B1C7010BDE580FF1F014B188880B2704780400040034B1A7800F0F80010431870704700BF82400040024B187800F00700704700BF8B
:402180008240004070B505460E46FFF7F3FF0446FFF7E0FFA84256D02B4B1B7803F0010294B900B185B938B9284B1D80284A137803F0BF03137070BD254A137843F0400334
:4021C0001370224B1D8070BD22B3002321490B7001240F310C7004310B700C390B7803F07F030B701A4B1B7813F0080F00D08DB9194B18800721013B1970164B1B7813F0F7
:40220000010FFAD110490B7803F0FE030B700021104B19700C4B1B7813F0010F0DD00E4B1D800EB1032200E001220A4B1A70094B1B7813F0010FFAD170BD044B1D800249B4
:402240000B7813430B7070BDA243004080400040824000400140004002400040014B188880B2704700410040034B1A7800F0F80010431870704700BF02410040024B1878E4
:4022800000F00700704700BF0241004070B505460E46FFF7F3FF0446FFF7E0FFA84256D02B4B1B7803F0010294B900B185B938B9284B1D80284A137803F0BF03137070BDB5
:4022C000254A137843F040031370224B1D8070BD22B3002321490B70012413310C7004390B7008390B7803F07F030B701A4B1B7813F0080F00D08DB9194B18800721013BFE
:402300001970164B1B7813F0010FFAD110490B7803F0FE030B700021104B19700C4B1B7813F0010F0DD00E4B1D800EB1032200E001220A4B1A70094B1B7813F0010FFAD197
:4023400070BD044B1D8002490B7813430B7070BDA14300400041004002410040014000400240004010B5002404E02046FFF70AF90134E4B2032CF8D9FF22014B1A7010BD92
:40238000E680FF1F10B50446FFF7ECFF2046FFF7DDF8014B1C7010BDE680FF1F044A137803F0FB03800000F00400184310707047C0510040024B1878C0F38000704700BFA8
:4023C000C1510040044A137803F0FD03400000F00200184310707047205100407222074B1A70202201331A700622593B1A70472210331A7000224B331A7070478564004054
:4024000010B500F0D9F804460A4A137843F0200313700132137843F0100313700232137843F01003137000F06FF8204600F0C8F810BD00BF9564004008B5054B1B7823B957
:40244000FFF7CCFF0122024B1A70FFF7D9FF08BD1C82FF1F014B1878704700BF45640040024B187800F07F00704700BF6664004010B5FFF7F5FF0402FFF7ECFF204380B220
:4024800010BD00BF08B500F097F8064B1A7842F001021A701A7802F0FE021A7000F090F808BD00BF95640040034B1B7813F0040FFAD1024B18707047686400404C64004025
:4024C00038B5074B1B782BB938BDFFF7EDFF0134A4B201E005460024285D0028F5D138BD1C82FF1F08B500F067F8064B1A7842F001021A701A7802F0FE021A7000F060F84C
:4025000008BD00BF9C640040054A137843F0040313701032137843F004031370704700BFA2430040704700BF014B1B68D864704708ED00E04001C0B2014B1870704700BF11
:4025400003E400E00822014B1A60704700E100E00822014B1A60704780E100E008B5FFF7F7FF0448FFF7E0FF0720FFF7E3FFFFF7E9FF08BD25250000044A137803F0DF03E0
:40258000400100F02000184310707047C0510040014B18780009704731510040014B187800097047015100400230800803D000BF01380046FCD17047EFF3108072B67047BB
:4025C00080F31088704700BFF8B5C1F30A56A6F2FF35132D0A460B460446864611DC002D2EDB0F461F4929410A4225D04FF400232B413B4423EA0103002619463446204684
:40260000F8BD332D05DDB5F5806F1FD011462046F8BDA6F213464FF0FF3121FA06F63042F4D00122C5F1330502FA05F52D1828BF9B1825EA0606E0E70028D7D11146E6E740
:40264000013501F0004307D00026D6E702460B4600F010F80446D2E743F07F5343F440130026CAE7FFFF0F0081F0004102E000BF83F0004330B54FEA41044FEA430594EAC4
:40268000050F08BF90EA020F1FBF54EA000C55EA020C7FEA645C7FEA655C00F0E2804FEA5454D4EB5555B8BF6D420CDD2C4480EA020281EA030382EA000083EA010180EAAD
:4026C000020281EA0303362D88BF30BD11F0004F4FEA01314FF4801C4CEA113102D0404261EB410113F0004F4FEA03334CEA133302D0524263EB430394EA050F00F0A780FA
:40270000A4F10104D5F1200E0DDB02FA0EFC22FA05F2801841F1000103FA0EF2801843FA05F359410EE0A5F120050EF1200E012A03FA0EFC28BF4CF0020C43FA05F3C01895
:4027400051EBE37101F0004507D54FF0000EDCF1000C7EEB00006EEB0101B1F5801F1BD3B1F5001F0CD349085FEA30004FEA3C0C04F101044FEA445212F5800F80F09A80C2
:40278000BCF1004F08BF5FEA500C50F1000041EB045141EA050130BD5FEA4C0C404141EB010111F4801FA4F10104E9D191F0000F04BF01460020B1FA81F308BF2033A3F102
:4027C0000B03B3F120020CDA0C3208DD02F1140CC2F10C0201FA0CF021FA02F10CE002F11402D8BFC2F1200C01FA02F120FA0CFCDCBF41EA0C019040E41AA2BF01EB045165
:40280000294330BD6FEA04041F3C1CDA0C340EDC04F11404C4F1200220FA04F001FA02F340EA030021FA04F345EA030130BDC4F10C04C4F1200220FA02F001FA04F340EA5E
:402840000300294630BD21FA04F0294630BD94F0000F83F4801306BF81F480110134013D4EE77FEA645C18BF7FEA655C29D094EA050F08BF90EA020F05D054EA000C04BF95
:402880001946104630BD91EA030F1EBF0021002030BD5FEA545C05D14000494128BF41F0004130BD14F580043CBF01F5801130BD01F0004545F0FE4141F470014FF0000074
:4028C00030BD7FEA645C1ABF194610467FEA655C1CBF0B46024650EA013406BF52EA033591EA030F41F4002130BD00BF90F0000F04BF0021704730B54FF4806404F13204FE
:402900004FF000054FF0000150E700BF90F0000F04BF0021704730B54FF4806404F1320410F0004548BF40424FF000013EE700BF42004FEAE2014FEA31014FEA02701FBF78
:4029400012F07F4393F07F4F81F06051704792F0000F14BF93F07F4F704730B54FF4607401F0004521F0004120E700BF50EA010208BF704730B54FF000050AE050EA0102A8
:4029800008BF704730B511F0004502D5404261EB41014FF4806404F132045FEA915C3FF4DCAE4FF003025FEADC0C18BF03325FEADC0C18BF033202EBDC02C2F1200300FAE9
:4029C00003FC20FA02F001FA03FE40EA0E0021FA02F11444C1E600BF70B54FF0FF0C4CF4E06C1CEA11541DBF1CEA135594EA0C0F95EA0C0F00F0DEF82C4481EA030621EA34
:402A00004C5123EA4C5350EA013518BF52EA033541F4801143F4801338D0A0FB02CE4FF00005E1FB02E506F00042E0FB03E54FF00006E1FB03569CF0000F18BF4EF0010E54
:402A4000A4F1FF04B6F5007F64F5407404D25FEA4E0E6D4146EB060642EAC62141EA55514FEAC52040EA5E504FEACE2EB4F1FD0C88BFBCF5E06F1ED8BEF1004F08BF5FEA19
:402A8000500E50F1000041EB045170BD06F0004646EA010140EA020081EA0301B4EB5C04C2BFD4EB0C0541EA045170BD41F480114FF0000E013C00F3AB8014F1360FDEBF6E
:402AC000002001F0004170BDC4F10004203C35DA0C341BDC04F11404C4F1200500FA05F320FA04F001FA05F240EA020001F0004221F0004110EBD37021FA04F642EB0601EB
:402B00005EEA430E08BF20EAD37070BDC4F10C04C4F1200500FA04F320FA05F001FA04F240EA020001F0004110EBD37041F100015EEA430E08BF20EAD37070BDC4F12005A8
:402B400000FA05F24EEA020E20FA04F301FA05F243EA020321FA04F001F0004121FA04F220EA020000EBD3705EEA430E08BF20EAD37070BD94F0000F0FD101F00046400097
:402B800041EB010111F4801F08BF013CF7D041EA060195F0000F18BF704703F00046520043EB030313F4801F08BF013DF7D043EA0603704794EA0C0F0CEA135518BF95EAB9
:402BC0000C0F0CD050EA410618BF52EA4306D1D181EA030101F000414FF0000070BD50EA410606BF1046194652EA430619D094EA0C0F02D150EA013613D195EA0C0F05D1B8
:402C000052EA03361CBF104619460AD181EA030101F0004141F0FE4141F470014FF0000070BD41F0FE4141F4780170BD70B54FF0FF0C4CF4E06C1CEA11541DBF1CEA135596
:402C400094EA0C0F95EA0C0F00F0A7F8A4EB050481EA030E52EA03354FEA013100F088804FEA03334FF0805545EA131343EA12634FEA022245EA111545EA10654FEA002678
:402C80000EF000419D4208BF964244F1FD0404F5407402D25B084FEA3202B61A65EB03055B084FEA32024FF480104FF4002CB6EB020E75EB030E22BFB61A754640EA0C00D2
:402CC0005B084FEA3202B6EB020E75EB030E22BFB61A754640EA5C005B084FEA3202B6EB020E75EB030E22BFB61A754640EA9C005B084FEA3202B6EB020E75EB030E22BFF9
:402D0000B61A754640EADC0055EA060E18D04FEA051545EA16754FEA06164FEAC30343EA52734FEAC2025FEA1C1CC0D111F4801F0BD141EA00014FF000004FF0004CB6E752
:402D400011F4801F04BF01430020B4F1FD0C88BFBCF5E06F3FF6AFAEB5EB030C04BFB6EB020C5FEA500C50F1000041EB045170BD0EF0004E4EEA113114EB5C04C2BFD4EBE7
:402D80000C0541EA045170BD41F480114FF0000E013C90E645EA060E8DE60CEA135594EA0C0F08BF95EA0C0F3FF43BAF94EA0C0F0AD150EA01347FF434AF95EA0C0F7FF41E
:402DC00025AF104619462CE795EA0C0F06D152EA03353FF4FDAE1046194622E750EA410618BF52EA43067FF4C5AE50EA41047FF40DAF52EA43057FF4EBAE12E74FF0FF3C42
:402E000006E000BF4FF0010C02E000BF4FF0010C4DF804CD4FEA410C7FEA6C5C4FEA430C18BF7FEA6C5C1BD001B050EA410C0CBF52EA430C91EA030F02BF90EA020F0020E5
:402E4000704710F1000F91EA030F58BF994208BF90422CBFD8176FEAE37040F0010070474FEA410C7FEA6C5C02D150EA013C07D14FEA430C7FEA6C5CD6D152EA033CD3D0AE
:402E80005DF8040B704700BF8446104662468C461946634600E000BF01B5FFF7B7FF002848BF10F1000F01BD4DF808EDFFF7F4FF0CBF012000205DF808FB00BF4DF808ED18
:402EC000FFF7EAFF34BF012000205DF808FB00BF4DF808EDFFF7E0FF94BF012000205DF808FB00BF4DF808EDFFF7CEFF94BF012000205DF808FB00BF4DF808EDFFF7C4FF53
:402F000034BF012000205DF808FB00BF4FEA4102B2F1E04324BFB3F5001CDCF1FE5C0DD901F0004C4FEAC0024CEA5070B2F1004F40EB830008BF20F00100704711F0804F23
:402F400021D113F13872BCBF01F00040704741F480114FEA5252C2F11802C2F1200C10FA0CF320FA02F018BF40F001004FEAC1234FEAD32303FA0CFC40EA0C0023FA02F349
:402F80004FEA4303CCE77FEA625307D150EA01331EBF4FF0FE4040F44000704701F0004040F0FE4040F40000704700BF80F0004002E000BF81F0004142001FBF5FEA4103FD
:402FC00092EA030F7FEA226C7FEA236C6AD04FEA1262D2EB1363C1BFD218414048404140B8BF5B42192B88BF704710F0004F40F4000020F07F4018BF404211F0004F41F4C0
:40300000000121F07F4118BF494292EA030F3FD0A2F1010241FA03FC10EB0C00C3F1200301FA03F100F0004302D5494260EB4000B0F5000F13D3B0F1807F06D340084FEA6E
:40304000310102F10102FE2A51D2B1F1004F40EBC25008BF20F0010040EA03007047490040EB000010F4000FA2F10102EDD1B0FA80FCACF1080CB2EB0C0200FA0CF0AABF37
:4030800000EBC25052421843BCBFD0401843704792F0000F81F4000106BF80F400000132013BB5E74FEA41037FEA226C18BF7FEA236C21D092EA030F04D092F0000F08BF4E
:4030C0000846704790EA010F1CBF0020704712F07F4F04D1400028BF40F00040704712F100723CBF00F50000704700F0004343F0FE4040F4000070477FEA226216BF0846E1
:403100007FEA23630146420206BF5FEA412390EA010F40F4800070474FF0000304E000BF10F0004348BF40425FEA000C08BF704743F0964301464FF000001CE050EA01025F
:4031400008BF70474FF000030AE000BF50EA010208BF704711F0004302D5404261EB41015FEA010C02BF84460146002043F0B64308BFA3F18053A3F50003BCFA8CF2083A4D
:40318000A3EBC25310DB01FA02FC634400FA02FCC2F12002BCF1004F20FA02F243EB020008BF20F00100704702F1200201FA02FCC2F1200250EA4C0021FA02F243EB0200A3
:4031C00008BF20EADC7070474FF0FF0C1CEAD0521EBF1CEAD15392EA0C0F93EA0C0F6FD01A4480EA010C400218BF5FEA41211ED04FF0006343EA501043EA5111A0FB013102
:403200000CF00040B1F5000F3EBF490041EAD3715B0040EA010062F17F02FD2A1DD8B3F1004F40EBC25008BF20F00100704790F0000F0CF0004C08BF49024CEA502040EAFA
:4032400051207F3AC2BFD2F1FF0340EAC250704740F400004FF00003013A5DDC12F1190FDCBF00F000407047C2F10002410021FA02F1C2F1200200FA02FC5FEA310040F1D8
:40328000000053EA4C0308BF20EADC70704792F0000F00F0004C02BF400010F4000F013AF9D040EA0C0093F0000F01F0004C02BF490011F4000F013BF9D041EA0C018FE7F3
:4032C0000CEAD15392EA0C0F18BF93EA0C0F0AD030F0004C18BF31F0004CD8D180EA010000F00040704790F0000F17BF90F0004F084691F0000F91F0004F14D092EA0C0FCC
:4033000001D142020FD193EA0C0F03D14B0218BF084608D180EA010000F0004040F0FE4040F40000704740F0FE4040F4400070474FF0FF0C1CEAD0521EBF1CEAD15392EA5E
:403340000C0F93EA0C0F69D0A2EB030280EA010C49024FEA402037D04FF0805343EA111143EA10130CF000408B4238BF5B0042F17D024FF4000C8B4224BF5B1A40EA0C0005
:40338000B3EB510F24BFA3EB510340EA5C00B3EB910F24BFA3EB910340EA9C00B3EBD10F24BFA3EBD10340EADC001B0118BF5FEA1C1CE0D1FD2A3FF650AF8B4240EBC25068
:4033C00008BF20F0010070470CF0004C4CEA50207F32C2BFD2F1FF0340EAC250704740F400004FF00003013A37E792F0000F00F0004C02BF400010F4000F013AF9D040EA88
:403400000C0093F0000F01F0004C02BF490011F4000F013BF9D041EA0C0195E70CEAD15392EA0C0F08D142027FF47DAF93EA0C0F7FF470AF084676E793EA0C0F04D14B02DE
:403440003FF44CAF08466EE730F0004C18BF31F0004CCAD130F000427FF45CAF31F000437FF43CAF5FE700BF4FF0FF3C06E000BF4FF0010C02E000BF4FF0010C4DF804CD1B
:403480004FEA40024FEA41037FEA226C18BF7FEA236C11D001B052EA530C18BF90EA010F58BFB2EB030088BFC81738BF6FEAE17018BF40F0010070477FEA226C02D15FEA70
:4034C000402C05D17FEA236CE4D15FEA412CE1D05DF8040B704700BF844608466146FFE70FB5FFF7C9FF002848BF10F1000F0FBD4DF808EDFFF7F4FF0CBF012000205DF8E6
:4035000008FB00BF4DF808EDFFF7EAFF34BF012000205DF808FB00BF4DF808EDFFF7E0FF94BF012000205DF808FB00BF4DF808EDFFF7D2FF94BF012000205DF808FB00BFFF
:403540004DF808EDFFF7C8FF34BF012000205DF808FB00BF014B1868704700BF4881FF1F0E4B70B51E460E4C0025E41AA410A54204D056F8253098470135F8E702F0D6FAB9
:40358000084B094C1E46E41AA4100025A54204D056F8253098470135F8E770BD385B0000385B0000385B0000405B0000024B0146186800F063B800BF4881FF1F10B5431E6A
:4035C0000A44914204D011F8014B03F8014FF8E710BD03460244934202D003F8011BFAE77047000038B50546002944D051F8043C0C1F002BB8BFE41801F084FB1E4A13688B
:40360000114613B96360146030E0A3420DD92268A018834201BF18685B681218226063600C6023E0A24203D813465A68002AF9D118681918A1420BD121680144581882422D
:40364000196013D110685268014419605A600DE002D90C232B6009E021686018824201BF106852680918216062605C602846BDE8384001F048BB38BD2482FF1F70B5CD1CBB
:4036800025F0030508350C2D38BF0C25002D064601DBA94202D90C23336046E001F032FB234B1C681A462146A1B10B685B1B0ED40B2B03D90B60CC18CD501EE08C420BBF44
:4036C00063684B681360636018BF0C4615E00C464968E9E7174C23681BB9304600F09EFC20602946304600F099FC431C18D0C41C24F00304A0420DD12560304601F003FB8D
:4037000004F10B00231D20F00700C31A0ED05A42E25070BD211A304600F080FC0130EBD10C233360304601F0EEFA002070BD00BF2482FF1F2082FF1F2DE9F04788B0149F99
:40374000002B1E461299B8BF03F1004327F02007B6BF1E4600232D23462F1446109DDDF84CA00B7003D0452F03D1013501E0032300E0022307AA049206AA03928DE8280495
:403780002246334600F014FD472F804602D1119BDB0728D5462F08EB050911D198F80030302B0AD10022002320463146FFF77CFB18B9C5F10105CAF80050DAF80030994432
:4037C0000022002320463146FFF76EFB08B9302202E0CDF81C9006E0079B994503D9591C07911A70F8E74046079B159AC8EB0303136008B0BDE8F087034673B50029B8BF42
:40380000494203F8022BB4BF2D222B22092942701ADD0DF1070216460A2591FBF5F405FB1411092C01F1300102F8011D2146F4DC3031541E02F8011CB4421A460AD214F8F0
:40384000012B03F8012BF7E71A463024214402F8024B5970101A02B070BD00002DE9F04F91B00C46DDF8688016461F46054601F037FA03681846099300F004FC00230E93F9
:40388000D8F800300A90073323F0070303F1080294F81890D4F800B0C8F80020D3E90023C4E91223D4F84CA0D4F848802AF000430B934FF0FF32A74B40460B9901F0A2FE64
:4038C000A0B94FF0FF32A34B40460B99FFF700FB60B90022002340465146FFF7EFFA10B12D2384F843309C4B9C4A0AE0424653464046514601F086FE002800F09281984B24
:40390000984AB9F1470F8CBF90469846032323612BF0040323604FF0000A3DE0B9F1670F00F08A81B9F1470F00F0868123600193636800210DF13302059002920093424665
:4039400053460691CDF81090CDF80CE02846FFF7F3FE09F0DF03472B804600F08481B9F1650F0D9900F28D8101394A4604F150000D91FFF741FF0E9A82468318012A236143
:4039800000F37C812268D10700F178819DF8333013B12D2384F84330009733460FAA2146284600F09FF9013002D14FF0FF3096E123685A0501D4236965E0B9F1650F40F2E1
:4039C000D580D4E9120100220023FFF76DFA78B30123654A31462846B8470130E5D00E9B0D9A9A420BDB2368D80708D423689B0740F111814FF0000804F1190906E10A9B06
:403A0000099A31462846B8470130CED04FF0000804F11A090E9B013B9845E7DA01234A4631462846B8470130BFD008F10108F1E70D9B002B29DC01234B4A31462846B847A7
:403A40000130B2D00D9B23B90E9B13B92368D907CCD50A9B099A31462846B8470130A4D04FF0000904F11A0A0D9B5B42994509DA0123524631462846B847013095D009F126
:403A80000109F1E70E9B4246A7E00E9AA36D9A42A8BF1A46002A914606DC4FF0000A29EAE97904F11A0B11E01346314642462846B8470130F1D178E701235A4631462846A5
:403AC000B84701303FF471AF0AF1010AA36DC9EB03029245F0DB08EB03090D9A0E9B9A420FDB2368DA070CD40E9B0D9A9844C9EB08089B1A9845A8BF9846B8F1000F08DC0E
:403B00000FE00A9B099A31462846B8470130EBD14BE743464A4631462846B84701303FF444AF4FF0000928EAE87804F11A0A09E00123524631462846B84701303FF435AF53
:403B400009F101090D9A0E9B9B1AC8EB03039945EEDB4BE7FFFFEF7FCE590000D2590000D6590000DA590000DE5900000E9A012A01DCDB0738D50123424631462846B84724
:403B800001303FF412AF0A9B099A31462846B84701303FF40AAFD4E9120100220023FFF783F920B14FF0000804F11A090EE00E9B08F10102013B19E001234A46314628467F
:403BC000B84701303FF4F1AE08F101080E9B013B9845F1DB534604F1500231462846B84701307FF403AFE0E64246012331462846B8470130EED1D8E601234A46314628467C
:403C0000B84701303FF4D1AE08F10108E3680F9A9B1A9845F0DBE0680F9B9842B8BF18465DE062680EA8531C0DF1340E4BF480637FF474AE062201E012B90122626075E677
:403C4000002106910DF133018DE80C00236005904246CDF81090CDF80CE0029153462846FFF76AFD80460D9BD81C02DB626893421DDDA9F102095FFA89F970E601332361C6
:403C800084E6B9F1660F14D10029636807DD216113B92268D2071DD501330B4419E013B92268D00701D5023313E0012311E04FF067090D9B0E9A934205DB22682361D107C5
:403CC00008D5013305E0002BD4BFC3F102030123134423610D9B4FF0000AA36556E611B0BDE8F08F2DE9F04791461F460A698B6806469342B8BF1346C9F8003091F8432081
:403D00000C46DDF8208012B10133C9F800302368990642BFD9F800300233C9F80030256815F0060510D104F1190A07E00123524639463046C04701301AD00135E368D9F8E0
:403D400000209B1A9D42F1DB94F843302268003318BF012392060FD5E118302081F843005A1C94F845102244023382F8431003E04FF0FF30BDE8F08704F143023946304630
:403D8000C0470130F4D02268D9F80050E36802F00602042A08BF5D1B2269A3680CBF25EAE57500259342C4BF9B1AED184FF000091A344D4509D00123224639463046C04720
:403DC0000130D5D009F10109F3E70020BDE8F0872DE9F04317460A7E85B06E2A984606460C460C9B01F1430E00F0AE8011D8632A22D009D8002A00F0BB80582A40F0CA80BA
:403E000081F84520834955E0642A1ED0692A1CD0C0E0732A00F0B08009D86F2A2ED0702A40F0B8800A6842F020020A603EE0752A24D0782A3AD0ADE01A6801F14205111DCE
:403E40001960136884F84230A8E021681A6811F0800F02D0111D196008E011F0400F02F10401196002D0B2F9003000E01368002B3CDA2D225B4284F8432037E021681A68E5
:403E800011F0800F02D0111D196007E011F0400F02F10401196001D0138800E01368227E5C496F2A14BF0A2208221BE078225A4984F845202268186812F0800F00F10405D5
:403EC0001D6003D1550601D5038800E00368D00744BF42F0200222601BB9226822F0200222601022002084F8430001E049490A226568002DA56008DB206820F004002060F8
:403F00002BB9002D7DD175460CE0002B79D07546B3FBF2F002FB1033CB5C05F8013D03460028F5D1082A0BD12368DA0708D5236962689A42DEBF302305F8013C05F1FF3506
:403F4000C5EB0E0323612EE008681A6810F0800F496903D0101D1860136808E010F0400F02F104001860136801D0198000E0196000232361754616E01A68111D19601568E6
:403F800000216268284600F0AFFE08B1401B6060636804E004F1420584F8422001232361002384F84330CDF800803B4603AA21463046FFF797FE013002D14FF0FF3026E061
:403FC00023692A4639463046C0470130F5D023689B0710D5002504F1190907E001234A4639463046C0470130E7D00135E368039A9B1A9D42F2DBE068039B9842B8BF1846F2
:4040000005E00B7804F1420584F842308AE705B0BDE8F083E0590000F159000038B5064C0023054608462360FDF78AFB431C02D1236803B12B6038BD108AFF1F0EB400B516
:404040004FF402719CB0ADF814106FF00041049107914FF6FF711DAB02900690084853F8042BADF81610006802A9019301F08AF9029B00221A701CB05DF804EB03B0704790
:404080004881FF1F034613F8012B002AFBD1181A013870472DE9F74F03690C6980469C427FDC013C01F114074FEA840E00F1140606EB0E0357F82450019356F824300135F4
:4040C000B3FBF5F507EB0E09C5B34FF0000A3846B446D34650F8043B9AB205FB02A21B0C4FEA124A05FB03A392B2C2EB0B0BBCF800204FEA134A5A441FFA83FBDCF800304A
:404100008145CBEB134303EB224392B242EA03424FEA234B4CF8042BDCD256F80E306BB9019B043B9E421A4602D3C8F8104005E01268043B002AF8D1013CF3E7404600F00F
:40414000F0FF00282BDB304601354FF0000E57F8042B036891B2C1EB0E0E120C99B27144C2EB134303EB214389B24FEA234EB94541EA034340F8043BE9D256F8242006EBB9
:40418000840362B9043B9E421A4602D3C8F8104005E01268043B002AF8D1013CF3E7284600E0002003B0BDE8F08F0000000000002DE9F04F456A95B08246219CCDE9022363
:4041C00045B91020FFF7F2F9CAF82400456085600560C560DAF82430196859B15A68012393404A608B60504600F0C3FDDAF8243000221A60039BA04A002BBDBF01232360D9
:40420000039B0023BCBF23F000430393DDF80C80A8BF236028F000431B0D1B0593421DD142F20F73209A1360029B43B9934A944BC8F31300002814BF1846104600E0904838
:40424000229B002B00F04685C37813B100F1080300E0C31C229A136000F03CBDDDE902450022002320462946FEF71EFE074658B1209A01231360229B002B00F01E858148A6
:404280001860013800F026BD12AB019313AB009322462B46504600F0BFFFC8F30A56049056B1C5F3130343F07F51204641F44011A6F2FF3611971DE0139B129E1E4406F21E
:4042C0003243202B0ADD029A06F21240C3F1400322FA00F008FA03F3184304E0C3F12000029B03FA00F0FEF701FB0123A1F1F871013E11930022644BFEF7BAF958A3D3E976
:404300000023FEF769FB58A3D3E90023FEF7B2F9044630460D46FEF7F9FA55A3D3E90023FEF75AFB02460B4620462946FEF7A2F904460D4601F07CF90022834600232046F6
:404340002946FEF7BBFD58B15846FEF7DFFA02460B4620462946FEF7A7FD08B90BF1FF3BBBF1160F0DD8DDE90223484901EBCB01D1E90001FEF7C0FD30B10BF1FF3B00231D
:4043800000E00123109300E01090129B9E1B731E079343BFC3F10008002307934FF00008BBF1000F06DB079BCDF82CB05B440793002705E00023CBEB0808CBF100070B9315
:4043C0001E9B092B28D8052BC4BF043B1E931E9BC8BF0025A3F10203D8BF0125032B20D8DFE803F0060E0204012302E0012308E000230A931F9B002B1DDD9946059321E04F
:4044000000230A931F9B0BEB030909F10103012B0593B8BF012315E0012500231E930A9501E001230A934FF0FF390022CDF8149012231F9206E04FF001094B46CDF8149062
:40444000CDF87C90DAF8244000226260042101F114029A421CD86268490001326260F6E761436F63A787D23FB3C8608B288AC63FFB799F501344D33F0000F07F025A000006
:404480000B5A0000DF5900000000F83F185A00006168504600F038FCDAF8243020601B680693059B0E2B00F25B81002D00F05881DDE90234BBF1000FCDE90E3430DD9F4A2F
:4044C0000BF00F034FEA2B1502EBC303E80618CBCDE908340CD5DDE90E01994B05F00F05D3E90823FEF7A2FB0324CDE9020100E00224934E6DB1E90708D5DDE90801D6E964
:404500000023FEF769FACDE9080101346D100836F0E7DDE90823DDE90201FEF787FB20E0CBF1000505B3DDE90E01844B05F00F0203EBC203D3E90023FEF74EFACDE902019E
:404540007F4E2D110023022455B1EA0705D5D6E90023FEF741FA013401236D100836F3E71BB1CDE9020100E00224109BE3B1DDE902560022734B28463146FEF79FFC98B190
:40458000059B8BB1B9F1000F40F3E6800BF1FF330893314600226C4B2846FEF71DFA0134CDE902014E4602E0059ECDF820B02046FEF7ACF9DDE90223FEF70EFA634B0022E6
:4045C000FEF758F8A1F1507304460C931D46D6B9DDE9020100225E4BFEF74AF822460C9BCDE90201FEF788FC002840F03F820C99224601F10043DDE90201FEF75FFC00289E
:4046000040F02B82A8E00A9A4C4B711E002A49D003EBC103D3E9002300204E49FEF706FB22462B46FEF724F8CDE90C01069CDDE9020100F0FDFF0546FEF768F902460B468C
:40464000DDE90201FEF714F8DDE90C23303504F8015BCDE90201FEF731FC002840F01D83DDE9022300203749FEF702F8DDE90C23FEF724FC002840F0D180069BE31AB3422B
:404680006ADADDE90C0100222F4BFEF7A5F90022CDE90C01DDE902012B4BFEF79DF9CDE90201C4E703EBC1012246D1E900012B46FEF792F9069BCDE90C011D469C19DDE99B
:4046C000020100F0B5FF0646FEF720F902460B46DDE90201FDF7CCFF303605F8016BAC42CDE902014FF0000222D11A4BDDE90C01FDF7C0FF02460B46DDE90201FEF7FCFBB5
:40470000002840F08B80DDE90C2300201149FDF7AFFF02460B46DDE90201FEF7CFFBD8B114F8013C621E302B40F0B7821446F7E7054BFEF751F9CDE90201C0E7185A000035
:40474000F05A00000000F03F0000244000001C40000014400000E03FDDE90E34CDE90234139B002B7CDBBBF10E0F79DCAB4B03EBCB03D3E900671F9B002B14DA059B002BD8
:4047800011DC40F06C810022A54B30463946FEF723F9DDE90223FEF7A5FB059D2E46002840F05F8165E1069CDDE9028932463B4640464946FEF73AFA00F03AFF0546FEF730
:4047C000A5F832463B46FEF707F90B46024649464046FDF74DFF05F1300E069B04F801EBC3EB040E059B73452DD102460B46FDF741FF8046894602460B4630463946FEF788
:404800005DFB78B942464B4630463946FEF74CFB002800F04482EB0704D440E2DDF820B000E01C4614F8012C631E392A07D1069A9A42F6D1069930220BF1010B0A701A78B7
:4048400001321A702BE20022764BFEF7C5F80022002380468946FEF727FB0028A6D01EE20A9A002A2BD01E9A012A0ADC119A12B103F2334302E0129BC3F136033D46444656
:4048800013E0059B5D1EAF42BFBF0B9BEA1B9B180B93059BB6BF2F467D1B0025002BA7BF4446059BC3EB08040023079A01211A4450469844079200F0FBFA064602E03D46DE
:4048C00044460A9E5CB1079B002B08DDA342A8BF2346079AC3EB0808E41AD31A0793002F1DDD0A9BABB18DB131462A46504600F079FB049A01460646504600F0E2FA0499B5
:404900000890504600F035FA089B04937A1B06D000E03A460499504600F064FB04900121504600F0C5FA0B9B05465BB31A460146504600F057FB1E9B0546012B18DC029B69
:4049400083B9039BC3F3130373B9039B23F000473F0D3F054FB1079B08F1010801330793012702E0002700E0029F0B9B73B100E000272B6905EB8303186900F04CFAC0F176
:40498000200004E01E9B012BD9DD0B9F0120079B184410F01F0008D0C0F12003042B02DDC0F11C0002E006D018461C30079B8044034404440793B8F1000F05DD4246049939
:4049C000504600F05DFB0490079B002B05DD29461A46504600F054FB0546109B23B32946049800F09EFB00281EDA00230A220499504600F0D5F90A9B0BF1FF3B0490002B98
:404A000000F05F81314600230A22504600F0C8F9B9F1000F06463FDC3BE000BF185A00000000144000002440059B002B2BDC1E9B022B28DDDDF81490B9F1000F11D1294635
:404A40004B460522504600F0ABF901460546049800F067FB00280CDC03E0354600E000252E461F9B069C6FEA030B09E03546DDF820B0069B069A5C1C312313700BF1010B89
:404A800005960026F7E00A9BDDF8149023B9069CB2E01E9B022BCFDC002C05DD31462246504600F0EDFA06469FB17168504600F02BF90446326906F10C01023292000C303B
:404AC000FEF77CFD01222146504600F0D9FA059000E00596029B069F03F00103079329460498FFF7D7FA3146044600F13008049800F017FB059A02902946504600F02DFBDA
:404B0000C36802463BB901460A90049800F009FB0A9A034600E00123114650460A9300F028F90A9B53B91E9A42B9079A32B9B8F1390F2AD0029B002B1CDC1DE0029A002AB3
:404B400004DB1BD11E9ACAB9079ABAB9002B13DD01220499504600F093FA2946049000F0E0FA002803DC07D118F0010F04D0B8F1390F0AD004F131087C1C0CE0002B07F1F5
:404B800001040BDDB8F1390F03D139233B70013756E008F1010887F800806CE0069B2746E31A4B4504F8018C3BD000230A220499504600F0F5F8059B04909E424FF00A0294
:404BC0004FF000033146504604D100F0E9F80646059084E700F0E4F8002306460A220599504600F0DDF8059079E700230A220499504600F0D5F8049029460498FFF74AFA07
:404C0000069B00F1300804F8018BE31A4B45ECDB069B0596B9F1010FACBF4B4401331F46002601220499504600F02AFA2946049000F077FA002803DC15D118F0010F12D06A
:404C40003C4614F8013C621E392B09D1069B934204D10BF1010B3123069A02E01446F0E70133137007E03C4614F8013C621E302B01D11446F8E72946504600F07AF8059BFB
:404C80006BB12EB19E4203D03146504600F071F80599504600F06DF801E0DDF820B00499504600F066F80023209A23700BF101031360229B1BB11C6001E008480AE00698AF
:404CC00008E0B9F1000F3FF7E2AE1E9B022B7FF7DEAEB1E615B0BDE8F08F00BFDE590000004870474C81FF1F10B5C9B202449042034605D01C7801308C42F8D1184610BD08
:404D0000002010BD7047704770B5456A04460E463DB91020FEF74AFC6062456085600560C560656AEB6843B1636ADB6853F8260078B1026843F8262017E0212204212046FF
:404D400000F0B8FA636AE860DB68002BECD1002070BD012101FA06F56A1D9200204600F0A9FA0028F3D04660856000230361C36070BD70B5446A06460D463CB91020FEF701
:404D800015FC7062446084600460C4603DB1736A6A68DB6853F82210296043F8225070BD2DE9F04106460C460D691F4601F1140E0023DEF80000013381B202FB0171000C91
:404DC0000F0C02FB007089B201EB00419D424FEA10474EF8041BECDCD7B1A3689D4212DB616830460131FFF78FFF8046226904F10C01023292000C30FEF7E0FB21463046D1
:404E0000FFF7B7FF444604EB850301355F6125612046BDE8F081030C1B0413B90004102300E0002310F07F4F04BF0002083310F0704F04BF0001043310F0404F04BF80003F
:404E40000233002803DB420003D5581C70471846704720207047036813F007020BD0D90722D49A074BBF5B089B08036003604CBF01200220704799B209B91B0C102213F099
:404E8000FF0F04BF1B0A0832190704BF1B090432990704BF9B080232D90702D45B0805D00132036010467047002070472020704710B50C460121FFF727FF0122446102616C
:404EC00010BD2DE9F74F14460A69236988469A42BEBF0B46A0461C46D8F81070D4F81090D8F80830D8F8041007EB09069E42C8BF0131FFF709FF00F114052B4605EB860C33
:404F00000022634502D243F8042BFAE704F1140208F1140102EB890301EB87070093009B0192934257D9B2F800B0BBF1000F23D08946AE464FF0000859F8044BBEF800A0AE
:404F4000A3B20BFB03A34FEA144ADEF8004043444FEA14480BFB0A84F24604EB13449BB243EA04434F454FEA14484AF8043B01D9D646E1E7CEF80480019B0432B3F802A0C3
:404F8000BAF1000F21D02C4689462B684FF00008B9F800E0B4F802B09BB20AFB0EBEA346F04443EA08434BF8043B59F8043BB4F804E01B0C0AFB03E34F4503EB18434FEABF
:404FC000134801D95C46E3E763600435A7E75CF8043D13B9013E002EF9DC066103B0BDE8F08F00002DE9F843154612F0030206460F4607D0214C013A002354F82220FFF72B
:40500000CFFE0746AD1036D0746A3CB91020FEF7CDFA7062446084600460C460D6F82480D8F808404CB940F271213046FFF740FF04460023C8F8080003604FF00008EB0723
:405040000AD5394622463046FFF73BFF814639463046FFF78EFE4F466D100CD0206808B10446ECE7224621463046FFF72AFF2060C0F80080F4E73846BDE8F883E05A00006B
:405080002DE9F0470C460746914626694FEA621A56444968A368751CAB4202DA01315B00FAE73846FFF730FE002380461A4600F11401534503DA41F823200133F9E72AEAC1
:4050C000EA73206901EB830319F01F0904F1140101EB800E14D0C9F1200C002208689A4600FA09F0024343F8042B51F8042B8E4522FA0CF2F2D8CAF8042042B1B51C06E006
:40510000043B51F8042B8E4543F8042FF9D8013D3846C8F810502146FFF72BFE4046BDE8F08703690A6910B59B1A11D192001430143183180A4453F8044D52F8041D8C428E
:4051400002D007D3012010BD9842F4D3002010BD184610BD4FF0FF3010BD2DE9F8430C460746114620461546FFF7DBFF061E08D131463846FFF7C8FD012303614661BDE848
:40518000F883BCBF23462C4638466168BABF1D4601260026FFF7B8FD2B69C660266905F1140904F1140101EB860709EB830800F114054FF0000C51F8042B59F8044B93B2F3
:4051C0009C44A3B2240CC3EB0C03C4EB124202EB23429BB24FEA224CC84543EA02428E4645F8042BE7D8BE450ED25EF8041B8AB26244131403EB114392B242EA03424FEA36
:40520000234C45F8042BEEE755F8043D0BB9013EFAE70661BDE8F8832DE9F3411C4601219046089E099DFFF76FFDC4F31302C4F30A5407460CB142F480120192B8F1000F75
:4052400019D002A840F8088DFFF705FE009B48B1019AC0F1200102FA01F10B43C2407B61019200E07B61019B002B14BF02210121BB61396107E001A8FFF7EDFD019B0121A8
:405280007B613961203034B1A4F2334404443460C0F1350009E0A0F2324007EB810330601869FFF7B8FDC0EB41102860384602B0BDE8F08138B502FB01F42146FEF7DEF979
:4052C000054618B122460021FEF783F9284638BD2DE9F0478E6882469E420C46914698463ED88A8912F4906F3AD02568096902236F1A656905EB450595FBF3F57B1C4344C8
:405300009D4238BF1D4653050FD52946FEF7B6F9064698B13A462169FEF750F9A38923F4906343F08003A38113E02A4600F039F9064670B921695046FEF754F90C23CAF8AB
:405340000030A3894FF0FF3043F04003A381BDE8F08726613E44266046466561ED1BA560464528BF464649463246206800F0FEF8A36800209B1BA36023681E442660BDE850
:40538000F08700002DE9F04F9DB003938B8980461C060D4616460DD50B695BB94021FEF76DF92860286118B90C23C8F80030CDE040236B610023099320238DF82930DFF8D9
:4053C0009CB130238DF82A3037463C4614F8013B1BB9B7EB060910D003E0252BF9D02746F3E74B46324629464046FFF771FF013000F0A780099B4B4409933B78002B00F0F6
:40540000A08000234FF0FF3204930793059206938DF853301A930126052221784E48FFF763FC671C049B38B14B4A3C46801A06FA00F018430490EFE7D90644BF20228DF8B7
:4054400053201A0744BF2B228DF8532022782A2A03D0079A00210A200BE0039A111D12680391002A10DA524243F00200079204900BE027463B780134303B092B03D800FB20
:4054800002320121F5E701B107923B782E2B1ED17B782A2B0AD1039B02371A1D1B680392002BB8BF4FF0FF33059310E0002319460593781C0A2407463A780130303A092AE7
:4054C00003D804FB01210123F5E703B10591032239782248FFF708FC40B14023CBEB000003FA00F0049B013718430490397806221B487E1C8DF82810FFF7F6FB88B1194B58
:4055000033B9039B073323F007030833039314E003AB00932A46144B04A94046FEF79EF907E003AB00932A460F4B04A94046FEF74FFCB0F1FF3F824603D0099B5344099340
:4055400042E7AB895B0601D4099801E04FF0FF301DB0BDE8F08F00BF185B00001E5B0000225B00005D380000D1520000884210B501EB020301D8421E0BE09842FBD28118F3
:40558000D21AD34204D013F8014D01F8014DF8E710BD994204D011F8014B02F8014FF8E710BDF8B5074615460E4621B91146BDE8F840FEF763B81AB9FEF714F82846F8BD12
:4055C00000F015F885420ED929463846FEF756F8044650B131462A46FDF7F0FF31463846FEF700F801E03046F8BD2046F8BD51F8040C0028BEBF091851F8043CC0180438F6
:40560000704700004FEA410C7FEA6C5C02D150EA013C0AD14FEA430C7FEA6C5C02D152EA033C02D14FF0000070474FF0010070474FEA410212F5001215D211D56FF4787360
:40564000B3EB625212D94FEAC12343F0004343EA505311F0004F23FA02F018BF404270474FF00000704750EA013005D111F0004008BF6FF0004070474FF00000704700BFD1
:405680000000000000000000547C253033647C2530362E32667C2530347825303478253034787C25637C25630D0A0000487C253033647C2530362E32667C2530352E32667A
:4056C0007C2530352E32667C25637C25630D0A00507C253033647C25737C25637C25630D0A0000002530326425303264253032642D2530326425303264000000527C3030E2
:40570000307C25737C25630D0A000000507C3030307C25737C25630D0A000000417C3030307C2530362E326C667C2530366C757C25647C25630D0A004D7C3030307C2530C7
:40574000362E326C667C25647C25630D0A000000457C3030307C4661756C74202D204F70656E20436F6E6E656374696F6E2C206E6F20746865726D6F636F75706C657C25A8
:40578000647C25630D0A0000457C3030307C4661756C74202D2053686F727420746F2067726F756E64206F6E20746865726D6F636F75706C657C25647C25630D0A0000001E
:4057C000457C3030307C4661756C74202D2053686F727420746F20564343206F6E20746865726D6F636F75706C657C25647C25630D0A0000547C3030307C2530362E326CDD
:40580000667C2530327825303278253032782530327825303278253032787C25630D0A00444F4E450D0A0000457C3030307C6573632074696D6564206F75740D0A0000006A
:40584000005EBCE2613FDD83C29C7E20A3FD1F419DC3217FFCA2401E5F01E3BD3E6082DC237D9FC1421CFEA0E1BF5D0380DE3C62BEE0025CDF81633D7C22C09E1D43A1FF48
:405880004618FAA427799BC584DA3866E5BB5907DB856739BAE406581947A5FB7826C49A653BD987045AB8E6A7F91B45C6987A24F8A6441A99C7257B3A6486D85B05E7B908
:4058C0008CD2306EEDB3510F4E10F2AC2F7193CD114FADF3702ECC92D38D6F31B2EC0E50AFF1134DCE90722C6D33D18F0C52B0EE326C8ED0530DEFB1F0AE4C1291CF2D73C8
:40590000CA947628ABF517490856B4EA6937D58B5709EBB536688AD495CB2977F4AA4816E9B7550B88D6346A2B7597C94A14F6A8742AC896154BA9F7B6E80A54D7896B3587
:405940000102030405060F100D510040005B00400D510040005B00400D510040005B00400D510040005B00400110022004400880035B00402443004040000000C84900403A
:405980001900004F00400C00405100403000F0510040100000000140800400050140000B00140140000800400140000A004C0140000200500140200060520040340A0048EB
:4059C0000600800401403C0A004880004300494E4600696E66004E414E006E616E003000303132333435363738394142434445460030313233343536373839616263646589
:405A00006600496E66696E697479004E614E00504F534958002E0000000000000000F03F000000000000244000000000000059400000000000408F40000000000088C34032
:405A400000000000006AF8400000000080842E4100000000D01263410000000084D797410000000065CDCD41000000205FA00242000000E876483742000000A2941A6D4297
:405A8000000040E59C30A2420000901EC4BCD64200003426F56B0C430080E03779C3414300A0D8855734764300C84E676DC1AB43003D9160E458E143408CB5781DAF1544E5
:405AC00050EFE2D6E41A4B4492D54D06CFF08044F64AE1C7022DB544B49DD9794378EA4405000000190000007D000000000000000080E03779C34143176E05B5B5B89346D2
:405B0000F5F93FE9034F384D321D30F94877825A3CBF737FDD4F1575232D302B2000686C4C0065666745464700000000F8B500BFF8BC08BC9E4670474D000000BD17000033
:405B4000F8B500BFF8BC08BC9E46704729000000605B0000C880FF1FC00000009008000000000000020A0000188AFF1F0000E02EC05D00001800000000366E0101FFFF0051
:405B80000000000000000000000000000000000000000000000000000000000000000000CC59000000000000000000000000000000000000000000000000000000000000C0
:405BC0000000000000000000000000000000000000000000000000000000000000000000E880FF1F155A00001D5B00001D5B00001D5B00001D5B00001D5B00001D5B0000E0
:405C00001D5B00001D5B00001D5B0000FFFFFFFFFFFFFFFFFFFFFFFFFFFF00000000000000000000000000000000000000000000000000000000000000000000000000000A
:405C40000000000000000000000000000000000000000000000000000000000000000000000000000000000000000000000000000000000000000000000000000000000024
:405C800000000000000000000000000000000000000000000000000000000000000000000000000000000000000000000000000000000000000000000000000000000000E4
:405CC00000000000000000000000000000000000000000000000000000000000000000000000000000000000000000000000000000000000000000000000000000000000A4
:405D00000000000000000000000000000000000000000000000000000000000000000000000000000000000000000000000000000000000000000000000000000000000063
:020000040003F7
:0200000480007A
:40000000024F00400552004006640040036500400402014002030140120401402F05014045060140460701405B080140360901405E0A01403A0B0140590C01403A0D014052
:40004000590E0140340F014004150140061701404618014046190140421A01404E1B014006400140044101400F4201400743014006440140074501400446014001470140C0
:400080000848014010490140154C0140144D0140085001400251014001800A4B04F0083909A3104011407D0185728638880F8B0D8E0F79FF88728B38B880BE40D804DF0126
:4000C00018021A02011005080918151C1701191F1F04210425072718291C2B022F03351F3B2059045C205F01050407040D080E420F0C155417021CA01D201E41230425050C
:400100002681288029842B142E40301032883304348036013A163D143E013F804410452847014D804F2157405E086D5476167708AE01B401C060C2F0C4F0CA1FCC9ECEF74A
:40014000D0E0D230D640010305040601070308070D020E081406150416011703180719071D011E08200122062402250728062B032C0431033208330436073A203E043F0496
:4001800054185604580459045B045C225D205F018003820C840C8502860389068A038C029003940F95069701980F99079C01A104A404A501A706A80CA906AB01AC08AF014B
:4001C000B307B40FBA20BB08D804D904DC22DF0100A401010280054006280701088009010A080B200D040F051154130815511602170819101B101D481F302104220C260514
:4002000029802A022B142C102E282F203208332034803510360839143A103C843D023F0C5E02640967807C087D0887409305988099809A329B089C109F01A050A105A60CD4
:40024000A710A880AB02AC10AD80AE20C0EFC2EFC4F7CA6FCC76CED6D680D8B0000204020510090A0A020B040D030F0C10011308140118011E021F05210322022304250378
:40028000270428013002310F340135103B023E113F10406549FF4AFF4BFF4F0150185401580459045A045B045C205D295F016040624064406540668068806A806C806E80A1
:4002C000830385078718891F8D1C8F029104951C97019F04A110A201A518A908AA01B001B11FBB0AC064C9FFCAFFCBFFCD83CE03CF01D018D804D904DA04DC19DD09DF018D
:40030000E040E240E440E540E680E880EA80EC80EE800418050807400C410E200F461080120814801502160817201A801E4823702440274829142A012C402D0830063280DF
:400340003480370138023B543C58428049204FA05D105E405F0A90189102944099209A809B019C809F40A084A208A351C070C2F0C45ACAC7CC9BCE7FD001D234D6F0000782
:40038000010208010C0817021F022004230128022B022E0730083301340737023B803E01406449FF4AFF4BFF4D834E034F0150185280580459045A045B045C995D995F014A
:4003C0006040624064406540668068806A806C806E808002820C8402861C88188A068E188F059206930697039A109F01A201A601A702A906AB01B001B21EB507BA08BB2001
:40040000BE01C065C5ECC602C807C9FFCAFFCBFFCD83CE03CF01D018D401D804D904DA04DB04DC22DD99DF01E040E240E440E540E680E880EA80EC80EE8000810120041862
:4004400007410C200D011082120815081680188019201B101C101E401F082001210422082408270829212C202F08308032083480370938013C40428049204D054FA0548083
:40048000568057405D055E4070027101910294889B019F40A064A301A708C0FBC250C43BCA65CCDACE11D001D234D6D0E8400010020C040C05010611081C0A020D0C11029E
:4004C00012031414150C18101D012009221025082B012F04301F330C370339883F044014410646B047CE483849FF4AFF4BFF4EF04F44500C580459045A045C225D025F0123
:4005000066C06A406B0283018503860188018C028F089001971499189B049D03A304A718A902AF0CB003B11CB203B303B603B88AB908BB02BF04C003C640C9FFCA07CBFFF2
:40054000CC40CD20CEF0CF05D008D804D904DA04DB04DC11DD02DF01E040E1A8E240E320032604080510074008020B400C210E400F201701198A1E402010234027212882FA
:4005800029182B082F2A336436023744380839023A403B043F444010450247404C0450205103520254045711680288029480974098809A409B049C019D8A9F20A040A3228F
:4005C000B312B440C077C278C410CA7FCCDECE5BD092D22003060601080109400D180E010F2210011520171819381B041D282120251227202A012D013001313E3340370139
:400600003E013F444034410546EB470C481C49FF4AFF4BFF4EF04F44500C5401580459045A045B045C105D115F0166C06A406B02820C880C8A038D038F0492089503970C65
:400640009C019E0E9F05A203A401A50AA606A704A903AB04AF08B40FB50FBA20BB20C002C604C9FFCA07CBFFCC40CD20CEF0CF05D008D804D904DA04DC11DD01DF01E0403B
:40068000E1A8E240E320032605120B400E020F801008148017041A401D101F2020802101220423012704280129082B402C082DA02F20308033243480370439023B603F403E
:4006C0004080430647204A014B40508853105640574259205A485B028301C057C298C432CA7BCC5ECE1DD023D208D60FE001E028E204EA01EC10A910AA80AC01AD08E603F7
:40070000EE01050809080F0111081506170119021A011D011F0621042507260129062D073001350737083E014065410242034404450C460E480549FF4AFF4BFF4C624DA034
:400740004EF04F41500C56025712580459045A045B045C105D115F016640670269106A306B106D106E106F129301940496029B019C029E05A407A807AC01AE02AF02B10308
:40078000B607BF01D804D904DB04DC01DF010A220C040E200F0810021128170419801A021F01210224022540270429802C012E2A300232103404351037813DA84502460881
:4007C00047044C014D204F0857405E086520670469026A986D286F017080710973087514762380808B848E1093109402970498019A089C049D149E01A204A402A690AA401F
:40080000AC04AF02B110B301C245C427CAF8CCF5CE70D0E0D230D640E60202030503070C090F0A030C0A0D080E04110C120313031403150F180319021C031F032103240CAF
:40084000250C280C29042C052D012E082F103003320C350F37103B20580459045C115F01820184068502880289028C048F019006920193029406960198019A069F01A407F9
:40088000AB02B207B301B702B980BA08BF04D418D604D804D904DB04DC11DD10DF0101400348048205140601074008410A020B140C010E200F0410021128161019021A208E
:4008C0001E201F082280230425082640284029942F083001321033483401364038803A103B143F94450846205D02648066206702880289808D408E109002920293129620BA
:400900009704980199149A019C80A114A340A402A690A901AC80AD08AE04B101B308B640C0FBC27FC427CA2FCC9FCE7ED680D8B0E028E204E80EEA01EC18324235203608BC
:4009400088208A02CCF096809D20A420A608074010203E105B0296809B029D20A420A608AF02C020C410CE20D640EE40860896909D20A608AB40E210EC80778079807C20B3
:400980008140DC01DE05640488049C20B780D801E401EC084508B420D001E802A5082510824084049690A920C820E6C0EE801302164074047B02830286408B02A004AA1094
:4009C000B510C430DC80DE20E010E220EA80132815045102530457085B015C105E016201671078107F4085048D02A508C40ED407D607D803DE03E4081101830887408810F0
:400A0000890197809B089C10AA01AB20AE01AF05B318B410B508C408E004E601E80CEC09000601010A040C060D010E0610021C0200EF03C0820400004B000000000000081C
:400A40001007000000071000000000080201090610000000000010000002041101000A00230000002300000020040001030720080C00101080000000000010046503040023
:400A800002C00E0006FFFFFF62A0F0410C0000000000021204040404222200010000000000004002001030100010101200000000000000000000000000000000F00000F017
:400AC000000000000F000000970048B4B300930000000000FF0000FFFF00FF0000000000400080424200400000000000F00008F00800000000000000110018010000000074
:400B000000000000000000000000000000000000000000000000000000000000000000000000000000000000000000000000000000000000000000000000000000000000B5
:400B40000000000000000000000000000000000000000000000000000000000000000000000000000000000000000000000000000000000000000000000000000000000075
:400B80000000000000000000000000000000000000000000000000000000000000000000000000000000000000000000000000000000000000000000000000000000000035
:400BC00000000000000000000000000000000000000000000000000000000000000000000000000000000000000000000000000000000000000000000000000000000000F5
:0200000490006A
:040000000080400735
:0200000490105A
:04000000BC90ACAF55
:0200000490303A
:0200000072ACE0
:0200000490402A
:4000000000000000000000000000000000000000000000000000000000000000000000000000000000000000000000000000000000000000000000000000000000000000C0
:400040000000000000000000000000000000000000000000000000000000000000000000000000000000000000000000000000000000000000000000000000000000000080
:400080000000000000000000000000000000000000000000000000000000000000000000000000000000000000000000000000000000000000000000000000000000000040
:4000C0000000000000000000000000000000000000000000000000000000000000000000000000000000000000000000000000000000000000000000000000000000000000
:0200000490501A
:0C00000000012E16106900012E3C831533
:00000001FF