:400000000080002011000000CD1A0000CD1A000008B5044B1A6803F53F5302331A6001F075FD00BFFA46004010B5054C237833B9044B13B10448AFF300800123237010BD36
:400040008881FF1F00000000805B0000084B10B51BB108490848AFF300800848036803B910BD074B002BFBD0BDE81040184700BF000000008C81FF1F805B0000C880FF1FCC
:400080000000000008B5034A13680133136001F019FF08BD4087FF1F08B502F0E9FB02F0EFFBC3B21B2B0DD1012002F04FFB01220C4B1A7000220C4B1A700C4B1A680C4BC5
:4000C0001A6008BD074B1B785BB107490A78531CDBB20B7007498854642B02D90022024B1A7008BDE986FF1FA481FF1F4087FF1FE486FF1FD487FF1F70B504460D4616465F
:400100001146284603F0C2F9214603F085FC50B93146284603F0BCF90146204603F07CFC18B1012070BD012070BD002070BD00BF07230CE040FA03F212F0010F03D03022D6
:4001400001F8012B02E0312201F8012B013B002BF0DA00230B7070472DE9F04F8FB08346FA2001F02FFD002477E1FA2001F02AFD002003460AE0C4EB04118A001A44BA4936
:4001800031F8122002B101200133DBB21D2BF2D918B9BBF1000F00F05E81B44B1B68B44AA2FB033226462101091BCB00AE490B44588EB0490988C1EB921202441FFA82FA31
:4001C0001D8F002D00F0B080284602F00BFE0022A94B02F097FF03F005F90746BBF1000F67D1C4EB0412D300A44A1344188F02F0F9FD0022A04B02F085FF03F0F3F8A04A17
:4002000001463846FFF778FF002852D14FEA0418C4EB0802D300944A1344988E02F0E2FD0022984B02F06EFFCDE90801C4EB08084FEAC803914A1344988E02F0D3FD002212
:40024000904B02F05FFF03F0CDF88046DDE9080103F0C8F88A4A4146FFF74EFF48BB4FEA0418C4EB0802D3007F4A1344D88E02F0B9FD0022834B02F045FFCDE90801C4EB0F
:4002800008084FEAC8037D4A1344D88E02F0AAFD00227C4B02F036FF03F0A4F88046DDE9080103F09FF8764A4146FFF725FF00283AD03201911BCB006B4901EB0308B8F8B7
:4002C00034106E4A13449986B8F83620DA861D87FA2001F077FCB8F83490B8F836006A4D6A4B1B78079306F13103069302F07AFD0022644B02F006FFCDE90401484602F0E1
:4003000071FD00225F4B02F0FDFECDE90201384602F07AFDCDE9000152465D49284604F00FF9284602F0D4FA002564E0AF00C6EB061293003B444C4A32F81380B8F1000F6B
:4003400057D0404602F04EFD00224B4B02F0DAFE03F048F881460890BBF1000F15D1C6EB061293003B44454A32F8130002F03AFD0022414B02F0C6FE03F034F8404A0146BA
:400380004846FFF7B9FE002833D04FEA0619C6EB090293003B44394A22F81380FA2001F011FC7A1C304BC6EB090081000A4433F81210BA1C8000024433F812200337074404
:4003C00033F81730304F31480078069006F131000590049303920291089802F015FDCDE9000152462B49384604F0AAF8384602F06FFA0135EDB2052D98D9C6EB0612D300A1
:40040000194A1344588F30B3BBF1000F07D1C6EB0612D300194A13445B8F98421BD0C6EB0612D300154A134458870BA9C0B2FFF77FFEFA2001F0C6FB134D144B1B78019324
:40044000313600960BAB52461349284604F078F8284602F03DFA0134E4B2092C7FF685AE0FB0BDE8F08F00BF3482FF1F4087FF1FD34D6210D688FF1F00005940D888FF1F44
:40048000CDCC0C3F000024405087FF1FEA86FF1F885B0000AC5B0000D05B0000000000002DE9F04FC7B0DFF87C82302388F80030914D00242C70914F3C6018230293152396
:4004C000019301260096032314228D498D4804F037F841F2883001F075FB02F017FA403088F8000000F0E4FC4FF4FA6000F034FF3B6803F51C531033834A1360834B1C70CB
:40050000834B1C70FF2002F01BF972B601F04AFD01F0A0FC01F0C8FC7E4801F0ABFC01F0CDFB62B6304600F04FFB02F08DF902F049F9794802F02CF92C7002F0ABF902F013
:40054000E3F801F021FF41F2883001F03BFB734B1B78002B00F0FE81674B1B78002B00F0F98100226D490A706D49CA54624B1A700B78313BDBB2012B00F2EC814FF4FA70A7
:4005800001F020FB012002F0E1F800F09BFF01210DA800F0EDFE00F013FF624B1B78594A61490FA803F0CCFF0FA802F091F95C4B1B78312B05D10020FFF7CEFD00230993C4
:4005C00020E00120FFF7C8FDFA2001F0FBFA002314E0494A02EB83025449516000215162032B05D8444A02EB83024FF07E51D1640021414A82F85C100133DBB2072BE8D94D
:400600000123099302F0ECF80001C4B241A92046FFF78EFD00238DF80831424B1B7841AA43490FA803F08CFF334B93F85C309C4201D1099B43B1304B83F85C40142001F09B
:40064000C1FA0FA802F044F900244AE0204602F06BF8142001F0B6FA01F01CFF0546A0F59C33803B334A934200D90025284601F0FDFE02F0C9FB1EA3D3E9002302F018FC7F
:4006800000222D4B02F014FC02F066F900222A4B02F038FD02F0A6FE06462746164B03EB8403D96C03F090F908B1099BBBB1304602F0AAFB1B4B1B780293019700950246D0
:4006C0000B461E490FA803F03BFF142001F07AFA0FA802F0FDF8084B03EB8703DE640134E4B2032CB2D90024D3E000BFAFF30080A245B6F3FDD4F03FA481FF1F4087FF1F25
:40070000E45B00002882FF1F3C87FF1FD087FF1FE886FF1F8500000099000000E986FF1FD487FF1FEA86FF1FFC5B00000000A0C10C5C0000C0090E00000024401C5C00004B
:40074000204600F009FA0546192001F03BFA012D54D915F0800F09D0AD4B1B782246AD490FA803F0EDFE0FA802F0B2F815F0400F09D0A74B1B782246A7490FA803F0E0FE4B
:400780000FA802F0A5F815F0200F09D0A04B1B782246A2490FA803F0D3FE0FA802F098F815F0100F09D09A4B1B7822469C490FA803F0C6FE0FA802F08BF815F0080F09D010
:4007C000934B1B78224697490FA803F0B9FE0FA802F07EF815F0040F09D08D4B1B78224691490FA803F0ACFE0FA802F071F8204600F000FA0A2001F0E5F948E022468B490F
:400800008B4800F069FA054602F0FEFA06460F460022884B02F0BEFD002838D00022864B3046394602F0D4FD88B3002200233046394602F0A5FD50BBA046754B1B7801935E
:40084000009432463B467D490FA803F079FE099B83B97B4B03EB84034FF07C5259682846FFF74AFC80B1002200233046394602F087FD48B9724B03EB88035D60142001F077
:40088000A1F90FA802F024F8322001F09BF90134E4B2072C7FF654AF002448E00E9E06EBC4063068716800F0F9FD05460BAB3068716803C39DF82E609DF82F709DF83080AE
:4008C0009DF831909DF832A09DF833B0284602F09BFA4F4B1B780693CDF814B0CDF810A0CDF80C90CDF808800197009602460B4654490FA803F024FE099B4BB9504B03EBFB
:4009000084034FF07C52596A2846FFF7F5FB48B1142001F057F90FA801F0DAFF484B03EB84035D62322001F04DF90134E4B29DF834309C42B2D3C82001F044F9424801F015
:40094000C7FF0024414B1C70322001F03BF9204601F0FCFE3E4B1B78B3B13E4B1B683E4A12689B1AB3F5FA6F0ED90024384B1C70334B1C70354B1C70384801F0A9FF01F01F
:4009800089FF204601F0E2FE354B1B78012B0ED013B1022B72D0DAE52E4A1168314A126891427FF6D4AD01332D4A1370CFE5012001F0CCFE00220BE02B4B1B78C3EB031322
:4009C00002EB83030020294921F813000132D2B23B2AF1D9244C2278254B02F131011970032159700021598028219980C2EB02121E4901EBC2029A6093E8070000F0F6FA3B
:400A0000174A1378013313702378013323709EE5EA86FF1F385C0000645C00008C5C0000B85C0000F45C0000305D00000000D9430000C8420000594000003EC05C5D0000FD
:400A4000A481FF1F745D0000A05D0000D487FF1FE986FF1F4087FF1FE486FF1FA85D0000D087FF1F3C87FF1FE886FF1F3482FF1F4487FF1F01F030F901F01EFF01F044F9F8
:400A80000028F7D100F0FCFB00F06CFC00287FF45EAD00220C4B1A700C4B1B78092B7FF656AD0B4B1B680B4AA2FB031292090A490A8003F590235833084A1360034B18709F
:400AC00001F044FE43E500BFD087FF1FE886FF1F4087FF1FD34D6210D688FF1F3C87FF1F10B501F01BFA322001F082F8002404E00134E4B2022001F065F801F003FA10F04E
:400B0000010F01D1F92CF3D901F014FA10BD00BFF8B50E46154600F07F07012404FA03F3D843C0B201F00CFE204601F04BF83846FFF7D6FF05E07F20FFF7D2FF06F8010BAC
:400B400025466B1EDCB2002DF5D1012001F03AF8FF2001F0F5FDF8BD10B582B00446034601220DF107010020FFF7D2FF9DF8073063B113F0010F0BD1234601220DF107010A
:400B80000720FFF7C5FF9DF8070002E0012000E0012002B010BD00BF70B506460D46012404FA02F2D043C0B201F0CAFD204601F009F846F08000FFF793FF2846FFF790FFD5
:400BC000FF2001F0BDFD70BD38B5054600240CE0012D01D0002100E01021224641F002010020FFF7D9FF0134E4B2072CF0D9012038BD00BF10B582B00446034601220DF1B4
:400C000007010020FFF784FF9DF8071001F0D30141F002018DF8071022460020FFF7BCFF02B010BD30B583B005460C460B4601220DF107010020FFF76BFF35B19DF80730B9
:400C400063F07F038DF8073005E09DF8073003F07F038DF8073022469DF807100020FFF79BFF03B030BD00BF30B583B00446FFF7C1FF21460120FFF7D5FF0F2000F0A2FFB4
:400C8000234601220DF107010020FFF741FF9DF8071041F020018DF8071022460020FFF77BFF462000F08EFF234601220DF107011046FFF72DFF9DF807000502234601229E
:400CC0000DF107010220FFF723FF9DF807002843400803B030BD00BF2DE9F04106460C461046FFF7C1FF02F083FC4FF0605102F0D7FC214602F0D4FC0546304602F084F897
:400D000002460B4654A1D1E9000102F0FBF902F069FB0146284602F0C3FC5D4902F0B8FB01F06AFE5B4902F0B1FB5B4902F06CFD04465A4902F070FE002840F0838000211A
:400D4000204602F05FFE00287FD13146284602F05BFD534902F0A4FC044602F055F840A3D3E9002302F0A4F83FA3D3E9002301F0EBFE02F037FB80462146204602F090FC40
:400D8000054602F041F83AA3D3E9002302F090F806460F46404602F037F832463B4601F0D5FE02F01FFB80462946204602F078FC054602F029F830A3D3E9002302F078F803
:400DC00006460F46404602F01FF832463B4601F0BBFE02F007FB80462946204602F060FC054602F011F826A3D3E9002302F060F806460F46404602F007F832463B4601F009
:400E0000A3FE02F0EFFA06462946204602F048FC01F0FAFF1CA3D3E9002302F049F804460D46304601F0F0FF22462B4601F08EFE02F0D8FA04461B4902F0D0FD40B1194858
:400E4000BDE8F0810020BDE8F0812046BDE8F0812046BDE8F08100BF88CE19EEAF60C3BEF163CC5D4BC80140000000E0A3406E40BB82C87D062F653F93C266C7E03DD43E34
:400E8000CE563151E2425E3E3EFAE46127F3E43D178393373211803B7F059BB50000F0420000C8420000A0C141EA0020704700BF0023054A1370054A1370054A1380054A88
:400EC0001380054A13807047A48EFF1F8C8DFF1F8E8DFF1F988DFF1F908DFF1F70B50026134B1E7010E0124C257800F003FF114B58552278985C01F0DFFC23780133DBB2B5
:400F00002370FD2B00D9012600F0FEFE0028EAD1094A13880133138036B1084A1388013313806FF0020070BD014B93F9000070BDA48EFF1F9C8DFF1F908DFF1F8E8DFF1F39
:400F400010B400244FF6FF7312E00D4A125D5340012209E003F001015B0819B183F4204383F001030132D2B2082AF3D90134E4B28442EAD31A0242EA132080B210BC7047D5
:400F80009C8DFF1F70B5144D2C782046FFF7D8FF124E030A33550134E4B2305501342C70012001F0A7FC142000F00CFE2978304600F0C2FE322000F005FE002001F09AFCE1
:400FC00000232B70064B1A68064B1A60064A13880133138070BD00BFA48EFF1F9C8DFF1F4087FF1F948DFF1F988DFF1F70B584B004AB03E90700594B1B78002B40F0A38049
:40100000574B1C78002C40F0A1809DF80400431EDBB2F62B00F29D800399524B1960524A10709DF805305370BDF80600050A9570D070013B0F2B7BD8DFE803F00808080839
:40104000121D7A7A7A7A7A7A7A7A2759BDF80820110A454B19715A710622444B1A7067E00B8803B1FF24404B1C7100225A7106223E4B1A705CE00B881B0A3B4A13710B7862
:4010800053710622394B1A7052E0BDF80830C3F307146400E4B213F00F0F01D00134E4B2180A314A10715371947107222F4B1A70002318E013F0010F07D02C4A1278580816
:4010C00011F810502848855407E0284A10785A0831F81220120A244D2A54244802780132027001339BB2A2B29342E3D320E0BDF80860330A1C4A1371F3B253715B0093719E
:4011000007221A4B1A70002210E01848037831F81240240A144DEC540133DBB2037011F81240EC5401330370013292B2B242ECD300F016FEFFF726FF0122094B1A70002080
:401140000B4B187007E06FF0010004E04FF0FF3001E06FF0020004B070BD00BF9C8EFF1F928DFF1F888DFF1F9C8DFF1FA48EFF1FA68EFF1F10B51A4B1B78981E194A145C2F
:40118000013BD35C43EA0424C0B2FFF7D9FE844205D0154A138801331380FF2010BD114B597811F0800F0CD00F4A138801331380FB2010BD0D4AD25C914207D00133DBB2BC
:4011C00000E00023072BF5D9002300E001232BB9054A138801331380012010BD002010BDA48EFF1F9C8DFF1F8E8DFF1FC05D000070B500241EE014F0010F0CD0104B1E6850
:401200006508E31C16F815100E4AD05CFFF74CFE26F815000CE00A4B1D68660835F81600E31C084AD15C000AFFF73EFE25F816000134E4B2034B9B789C42DCD370BD00BF0F
:40124000888DFF1F9C8DFF1F70B5002403250DE0094B1E686A1C094B995C585DFFF724FE26F814000235EDB20134E4B2034B9B78B4EB530FECD370BD888DFF1F9C8DFF1F85
:4012800008B500F041FD2A4B1A682A4B1B68D31A294909888B420AD90020284B1870FF22274B1A70274A13880133138008BD00283AD0254B1B78984205D0234B1870234B9C
:4012C0001A60002008BD214B1B68D21A042A2DD900221D4B1A70FFF701FE052807DC0022164B1A70174A13880133138008BDFFF741FF20B10021114A117040B208BD144BB8
:401300005B78013B032B08D8DFE803F002020505FFF76EFF01E0FFF797FF0022074B1A700C4B93F9000008BD002008BD002008BD4087FF1F948DFF1F9A8EFF1F928DFF1FE1
:40134000A68EFF1F8E8DFF1F8C8DFF1FA08EFF1F9C8DFF1FA48EFF1F014B1880704700BF9A8EFF1F014B1878704700BF928DFF1F10B5044639B10848002300F8013F00F005
:40138000D7F9064B1860044B5B782370034B1B686360204610BD00BFCC80FF1F0482FF1F10B582B08DE8030000F08CF89DE8030000F094F9442000F0E1F802B010BD00BFF8
:4013C00010B5002409E0074B1B6803EBC40318685968FFF7E5FF0134E4B2034B5B789C42F1D310BD0482FF1FCC80FF1F30B585B000F0E8F8002409E000F0D4F804AB234444
:4014000003F80C0C00F0E4F805460134082CF3DD9DF805309DF80400D5B903B9D0B113F0080F0CD040EA0320404280B202F0E4F84FF0765102F034F900F100400BE040EAEB
:40144000032002F0D9F84FF0765102F029F902E0024800E0014805B030BD00BF0000C8C208B50D4B1B781BB95F2000F0ABFB08BD012B03D1BE2000F0A5FB08BD022B04D1A1
:401480004FF4BE7000F09EFB08BD032B03D140F2EE2000F097FB08BDCC80FF1F10B582B08DE80300FFF7DCFF00F00CF89DE8030000F014F9BE2000F061F8FFF797FF02B05C
:4014C00010BD00BF08B5002001F04CF94FF4F07000F08EFB012001F045F9462000F088FB01F04CF940B90022064B1A704FF4D77000F07EFB012008BD0122024B1A700020E9
:4015000008BD00BFB98EFF1F08B5002001F02AF90F2000F06DFB012001F024F9322000F067FB08BD08B5002001F01CF93C2000F05FFB012001F016F9052000F059FB08BDDA
:4015400008B510B1FFF7E0FF08BDFFF7EBFF08BD10B5002001F006F9052000F049FB012001F000F9052000F043FB01F007F904463C2000F03DFB204610BD00BF38B5054639
:4015800000240BE045FA04F313F0010F02D0FFF7BBFF01E0FFF7C6FF0134E4B2072CF1D938BD00BF38B500252C4606E0FFF7D0FFA0400543EDB20134E4B2072CF6D9284608
:4015C00038BD00BF0022014B1A707047B88EFF1F034A13785840034B185C1070704700BFB88EFF1FC85D00002DE9F0410022374B1A70374B1B78002B56D1FFF763FF28B95E
:40160000344B1870324B1870BDE8F081F020FFF7B5FF01240027B8462646FFF799FF0546FFF796FF012D01D101282FD0854210D1284B1D78AE4206D2274BDB5D1C4214BF39
:401640000125002503E0AE4214BF0025012505B9B046012D04D1204AD35D2343D35504E01D4AD35D23EA0403D3552846FFF768FF0136F6B2640014F0FF0405D1164BD85D17
:40168000FFF7A6FF01370124072FC6DD402E0DD90E4B1B7863B95FFA88F30E4A13704BB901200B4B187006E0002004E0002002E0002000E0012010B1074B1B7823B900209C
:4016C000044B1870024B1870BDE8F081B88EFF1FAC8EFF1FBA8EFF1FB08EFF1F10B582B002AB03E90300FFF7EDFE5520FFF746FF002406E002AB234413F8080CFFF73EFF16
:401700000134072CF6DD002002B010BD08B50023034A1370034A1370FFF766FF08BD00BFBA8EFF1FAC8EFF1F08B5FFF75DFF08BD70B582B004460022154B1A70FFF7E6FF56
:401740001DE0013B00E00723002BFADA072306E0104AD15C02AA1A4402F8081C013B002BF6DA0B4B1A78511C19700B4D05EBC2066B4603CB45F832007160FFF7D5FF002892
:40178000E1D1034B1B782370034802B070BD00BF0882FF1FB08EFF1FBC8EFF1FFEE700BF064B1B78DBB203F00701054A11701B09013213704422034B1A707047CF010049E6
:4017C0006E5800407658004008B50A46002102F082F908BD08B502F073F908BD08B502F06FF908BD38B50024344B1C80502202331A700B2202331A801823314A13704FF4E4
:401800009C7230490A8002310B7002310A802E4A137004222D492E48FFF7DCFF02222D4B1A7008224FF040231A70032103F500731970294B1B78DBB228490B70284B1A802D
:4018400041F25122023B1A8019250CE0254B1B7803F0010343EA440404F003044FF4F07001F06AF8013D0DB1032CEFD115B90320FFF794FF1C4B4FF480721A8007221A7013
:4018800000221A490A704820023108701A700222033B1A7004220A331A70154A137843F00F031370013A137843F001031370013A137843F08003137038BD00BF80400040CE
:4018C00086400040884000408E400040C85E0000004100400043004008010049A146004022420040254200400440004006400040A2430040032818D810B44000C0B20B4BC8
:4019000003EB800251681A1892F824400A7822430A700130C0B203EB80025268184490F8241013780B43137010BC7047C85E000003281AD810B44000C0B20C4B03EB8002B9
:4019400051681A1892F824400A7822EA04020A700130C0B203EB80025268184490F82410137823EA0103137010BC7047C85E0000012809D8054B03EB8002D26A184490F8E9
:40198000341013780B431370704700BFC85E000001280AD8054B03EB8002D26A184490F83410137823EA010313707047C85E000070B572B600240BE0374863001A195100FE
:4019C00001440A46898F906BFFF7FEFE0134E4B20C2CF1D900240EE02F48A20011194B000344B3F89020D3F88C10D3F88800FFF7F1FE0134E4B2342CEED90A24274B1C7081
:401A0000274A137843F0020313701032137843F002031370234E337843F040033370A2F58632513A137843F0100313701A4D224605F527711C48FFF7CDFE224605F52A7181
:401A40001A48FFF7C7FE224605F52D711848FFF7C1FE224605F530711648FFF7BBFE224605F533711448FFF7B5FE144A137843F008031370124C61232370FFF7B3FE8123AF
:401A8000237001220F4B1A70FFF78AFE0E2231460D48FFF7A3FE70BDC85E00008358004003500140A043004000510040C051004010510040205100403051004022430040BC
:401AC0000048004004000840B043004008B501F0C3FF03680C2B00D1FEE7FEE708B5094B1A681044084BC31AB3F5C04F02DC054B186005E001F0B0FF0C2303604FF0FF3237
:401B0000104608BDD080FF1F188FFF1F08B5104E104D16E029686B68AC68002204E051F8040B43F8040B0432A242F8D1E868002203E0002143F8041B04328242F9D110350D
:401B4000013E002EE6D101F08DFFFEF7A9FCFEE701000000B879000008B5104A104B1A60104A136843F40073136000230AE0032B03D80D4A52F8231000E00C490C4A42F886
:401B8000231001332F2BF2D90A4B1A780A4B1A70074A0A4B1A60FFF70BFF08BD0004FA050CED00E014ED00E000000000CD1A00000080FF1FBC760040C080FF1F08ED00E007
:401BC00001BE704710B5044605E0084B186800F0B3FEA4F50044B4F5004FF6D8034B586800FB04F000F0A8FE10BD00BFD480FF1F08B5034B1B7A00FB03F000F09DFE08BDF5
:401C0000D480FF1F70B504460E46074B1D681F2802D90020FFF7D4FF04F01F04103455F8240045F8246070BD08ED00E038B504460D46072902D90020FFF7C2FF1F2C02D96C
:401C40000020FFF7BDFF04F01F0000F1604000F564406D01EDB2057038BD00BF7222074B1A700023064A13700621623A11704721103211704F321370704700BF8A650040A1
:401C80008B65004010B500F05FFE04460A4A137843F0200313700132137843F010031370033A137843F01003137000F06BF8204600F04EFE10BD00BF9A65004008B5054BFB
:401CC0001B7823B9FFF7CAFF0122024B1A70FFF7D9FF08BD0982FF1F014B1878704700BF4A650040024B187800F07F00704700BF6B65004010B5FFF7F5FF0402FFF7ECFFD7
:401D0000204380B210BD00BF044B1B7813F0200F01D0012070470020704700BF6B650040034B1B7813F0040FFAD1024B187070476865004048650040084B1B7833B970474E
:401D4000305DFFF7EDFF0134E4B203E070B50D4606460024AC42F3D370BD00BF0982FF1F08B500F0F1FD064B1A7842F001021A701A7802F0FE021A7000F0EAFD08BD00BF6F
:401D800098650040054A137843F0040313701032137843F004031370704700BFA2430040084A137843F0010313701032137843F00103137002F64D32137843F00103137050
:401DC000704700BFA3430040014B1870704700BF034F0040014B1880704700BF044F0040014B1880704700BF064F004008B5164A137803F0010313700232137803F0FC03BC
:401E00001370124B1A7802F0CF021A701A7842F030021A701A7802F0F0021A701A7842F00F021A700A4A137843F00103137045F6BF50FFF7CFFF45F6BF50FFF7D1FF082025
:401E4000FFF7C2FF08BD00BF004F00400B4F0040014F004008B5054B1B7823B9FFF7C6FF0122024B1A70FFF79BFF08BD0B82FF1F704700BF014B1B685864704708ED00E0B0
:401E80004001C0B2014B1870704700BF01E400E00222014B1A60704700E100E00222014B1A60704780E100E008B5FFF7F7FF0448FFF7E0FF0720FFF7E3FFFFF7E9FF08BDB0
:401EC000711E00000222014B1A60704780E200E008B500F039FD0A4A137843F020031370033A137843F010031370023A137843F01003137000F02CFD00F062F808BD00BFCD
:401F00009D640040014B1878704700BF6A640040014B1878704700BF68640040034B1B7813F0040FFAD0024B187070476A6400404A640040014B1878704700BF5A64004009
:401F400008B501E00A4B1B780A4B1B7813F0200FF8D100F0F9FC084B1A7842F001021A701A7802F0FE021A7000F0F2FC08BD00BF5A640040686400409A64004008B50F22C9
:401F8000064B1A70FFF7DCFFFFF7BCFFFFF7C0FF0023034A1370023A137008BD8D6400408A64004008B5054B1B7823B9FFF7E6FF0122024B1A70FFF78BFF08BD0C82FF1FF7
:401FC000054A137843F0020313701032137843F002031370704700BFA243004010B59DF80840012C51D1013809282ED8DFE800F0052D2D052D2D0F192D230F2B03D9254858
:40200000007840B222E02448007840B21EE00F2B03D92248007840B218E02148007840B214E00F2B03D91F48007840B20EE01E48007840B20AE00F2B03D91C48007840B244
:4020400004E01B48007840B200E0002001EB401101FB02F1C90B8AB20D2B0BD8C3F10E0289B211418AB2611E124800EB810101338B7005E0631E0F4901EB83030F219970ED
:40208000013C0C4B23F8242010BD0020FFF798FD10BD00BF180100491C010049190100491D0100491A0100491E0100491B0100491F0100491082FF1FF8B5074600F044FC23
:4020C00006460D4D2B7843F003032B700B4C237843F0030323700A4B1F700320FFF788FD2B7803F0FC032B70237803F0FC032370304600F02DFCF8BDF8460040F9460040F2
:402100009258004038B50022304B1A7101285BD174222F4B1A70002402331C70092201331A707F232B4A13700132147001321370294B1C7001331C7001331C7001250A33B9
:402140001D70502203F527631A70072201331A70292201331A7001331C70552203331A705A2201331A7001331C70022202331A70122201331A70282201331A70EB22013355
:402180001A704420FFF798FF5822144B1A7001331C7005331D7001331D7001331C700A2201331A70204600F09BF90D4A0D4B1A602946042000F0B8F92946112000F038FA48
:4021C00009491D20FFF71EFD38BD00BF1082FF1F004E0040044E0040084E004094580040AB9A02000C8FFF1FBD240000F0B583B0274D01272F70274E00247471102000F067
:4022000081F9102000F002FA07211D20FFF70EFD0422214B1A7001331C7007331C701F4A137843F0180313701D4B1C7003F2F5231C7001331C700A22A3F209331A70013333
:402240001C7002331C705B2205331A705E2201331A7004331C701423124A137000974FF4004247F602710320FFF7B8FE2B78013B06EB83039A780C4B1A702B78013B36F8CA
:4022800023200A4B1A802878FFF73CFF03B0F0BDE480FF1F1082FF1F96580040075B004093580040014E00400E4E00400C4E004070B500F049FB06462A4B1B782A4B1A7815
:4022C00042F001021A701A7842F010021A7010331A7842F001021A701A7842F010021A70224D2B7843F002032B70214C237843F0020323701F4A137843F003031370032040
:40230000FFF776FC2B7803F0FD032B70237803F0FD032370184A137843F0060313707A22164B1A70164A137843F0010313701032137843F0010313700F3A137843F0010379
:4023400013701032137843F0010313704FF000530C4A1360A2F5C0721360304600F0F8FA70BD00BFE480FF1FAA430040F8460040F94600409158004077580040825800407A
:40238000A143004080E200E008B5084B9B794BB9064BDB7913F0FF0F01D1FFF727FF0122024B9A71FFF784FF08BD00BF1082FF1F024A137843F0010313707047004E0040ED
:4023C000024A137803F0FE0313707047004E0040094B1B7913F0FF0F03D0074B5B79DBB203E0064B1B7803F00103012B01D00028EED01846704700BF1082FF1F014E004017
:40240000154B1B7803F00303012B07D8134B1888023B1B889BB243EA004013E0022B0AD10E4B1888023B1B7843EA00430C4A107843EA002006E00B4B188883B2074A1088B4
:4024400043EA0040084B1B7913F0FF0F02D00022054B5A71704700BF144E0040124E0040114E0040104E00401082FF1F10B5074B9B68C01A01F0C0F80446054B186801F09B
:40248000BBF80146204601F0BFF910BD1082FF1F0C8FFF1F10B5084A137843F004031370FFF786FF0020FFF793FFFFF7A9FF0446FFF786FF204610BD014E0040704700BFC0
:4024C00010B5002404E02046FFF762FA0134E4B2012CF8D9FF22014B1A7010BDE580FF1F10B50446FFF7ECFF2046FFF741FA014B1C7010BDE580FF1F014B188880B27047C3
:4025000080400040034B1A7800F0F80010431870704700BF82400040024B187800F00700704700BF8240004070B505460E46FFF7F3FF0446FFF7E0FFA84256D02B4B1B7850
:4025400003F0010294B900B185B938B9284B1D80284A137803F0BF03137070BD254A137843F040031370224B1D8070BD22B3002321490B7001240F310C7004310B700C39E9
:402580000B7803F07F030B701A4B1B7813F0080F00D08DB9194B18800721013B1970164B1B7813F0010FFAD110490B7803F0FE030B700021104B19700C4B1B7813F0010F78
:4025C0000DD00E4B1D800EB1032200E001220A4B1A70094B1B7813F0010FFAD170BD044B1D8002490B7813430B7070BDA2430040804000408240004001400040024000406E
:40260000014B188880B2704700410040034B1A7800F0F80010431870704700BF02410040024B187800F00700704700BF0241004070B505460E46FFF7F3FF0446FFF7E0FF10
:40264000A84256D02B4B1B7803F0010294B900B185B938B9284B1D80284A137803F0BF03137070BD254A137843F040031370224B1D8070BD22B3002321490B70012413313C
:402680000C7004390B7008390B7803F07F030B701A4B1B7813F0080F00D08DB9194B18800721013B1970164B1B7813F0010FFAD110490B7803F0FE030B700021104B1970FF
:4026C0000C4B1B7813F0010F0DD00E4B1D800EB1032200E001220A4B1A70094B1B7813F0010FFAD170BD044B1D8002490B7813430B7070BDA1430040004100400241004072
:40270000014000400240004010B5002404E02046FFF70EF90134E4B2032CF8D9FF22014B1A7010BDE680FF1F10B50446FFF7ECFF2046FFF7DFF8014B1C7010BDE680FF1F07
:40274000014B1A781870704710510040044A137803F0FD03400000F0020018431070704720510040044A137803F0FB03800000F00400184310707047C0510040024B18785C
:40278000C0F38000704700BFC1510040704700BF014B1B689864704708ED00E04001C0B2014B1870704700BF02E400E00422014B1A60704700E100E00422014B1A60704787
:4027C00080E100E008B5FFF7F7FF0448FFF7E0FF0720FFF7E3FFFFF7E9FF08BD8D270000014B187800097047015100407222074B1A70202201331A700622643B1A70472220
:4028000010331A70022251331A7070478B64004010B500F099F804460A4A137843F0200313700132137843F010031370033A137843F01003137000F06FF8204600F088F826
:4028400010BD00BF9B64004008B5054B1B7823B9FFF7CCFF0122024B1A70FFF7D9FF08BD1C82FF1F014B1878704700BF4C640040024B187800F07F00704700BF6C640040F3
:4028800010B5FFF7F5FF0402FFF7ECFF204380B210BD00BF08B500F057F8064B1A7842F001021A701A7802F0FE021A7000F050F808BD00BF9C640040034B1B7813F0040FC2
:4028C000FAD1024B18707047696400404964004038B5074B1B782BB938BDFFF7EDFF0134A4B201E005460024285D0028F5D138BD1C82FF1F044A137803F0DF03400100F01C
:402900002000184310707047C0510040014B18780009704731510040054A137843F0080313701032137843F008031370704700BFA2430040000000000230800803D000BF26
:4029400001380046FCD17047EFF3108072B6704780F31088704700BFF8B5C1F30A56A6F2FF35132D0A460B460446864611DC002D2EDB0F461F4929410A4225D04FF400230D
:402980002B413B4423EA01030026194634462046F8BD332D05DDB5F5806F1FD011462046F8BDA6F213464FF0FF3121FA06F63042F4D00122C5F1330502FA05F52D1828BFE5
:4029C0009B1825EA0606E0E70028D7D11146E6E7013501F0004307D00026D6E702460B4600F0B4F80446D2E743F07F5343F440130026CAE7FFFF0F00F0B58BB0054600F064
:402A000049F8224B044693F90060731C0AD02946284601F00BF8074620B90021284600F0DDFF10B920460BB0F0BD194A0123284601920093089700F0E7F90022CDE90401F9
:402A4000CDE9020100239EB11046194600F05AFB022ECDE906010DD100F0FEFF21230360089B6BB9DDE9060100F0BCFC0BB0F0BDCDE90623684600F061F80028F0D1EBE79D
:402A800000F0EAFF089B0360ECE700BFE780FF1F2C78000020F00042B2F1FF4F70B504462ED262B3002803463DDBB2F5000F4FEAE0502CD3002631467F38C3F31603C20722
:402AC00043F4000348BF5B0040105B0019244FF080728D189D4202DC5B1BA9181644013C4FEA43034FEA5202F3D113B106F001031E44761006F17C5606EBC05070BD70BD57
:402B0000014600F0CDFD214600F0C2FC70BD14F4000201D00EE00A465B001C0202F10101F9D5801AC6E7014600F0B0FC014600F06BFE70BD4FF0FF32F3E700BF0020704726
:402B400081F0004102E000BF83F0004330B54FEA41044FEA430594EA050F08BF90EA020F1FBF54EA000C55EA020C7FEA645C7FEA655C00F0E2804FEA5454D4EB5555B8BFA9
:402B80006D420CDD2C4480EA020281EA030382EA000083EA010180EA020281EA0303362D88BF30BD11F0004F4FEA01314FF4801C4CEA113102D0404261EB410113F0004F97
:402BC0004FEA03334CEA133302D0524263EB430394EA050F00F0A780A4F10104D5F1200E0DDB02FA0EFC22FA05F2801841F1000103FA0EF2801843FA05F359410EE0A5F105
:402C000020050EF1200E012A03FA0EFC28BF4CF0020C43FA05F3C01851EBE37101F0004507D54FF0000EDCF1000C7EEB00006EEB0101B1F5801F1BD3B1F5001F0CD349081E
:402C40005FEA30004FEA3C0C04F101044FEA445212F5800F80F09A80BCF1004F08BF5FEA500C50F1000041EB045141EA050130BD5FEA4C0C404141EB010111F4801FA4F1A0
:402C80000104E9D191F0000F04BF01460020B1FA81F308BF2033A3F10B03B3F120020CDA0C3208DD02F1140CC2F10C0201FA0CF021FA02F10CE002F11402D8BFC2F1200CAD
:402CC00001FA02F120FA0CFCDCBF41EA0C019040E41AA2BF01EB0451294330BD6FEA04041F3C1CDA0C340EDC04F11404C4F1200220FA04F001FA02F340EA030021FA04F32B
:402D000045EA030130BDC4F10C04C4F1200220FA02F001FA04F340EA0300294630BD21FA04F0294630BD94F0000F83F4801306BF81F480110134013D4EE77FEA645C18BFD5
:402D40007FEA655C29D094EA050F08BF90EA020F05D054EA000C04BF1946104630BD91EA030F1EBF0021002030BD5FEA545C05D14000494128BF41F0004130BD14F58004C4
:402D80003CBF01F5801130BD01F0004545F0FE4141F470014FF0000030BD7FEA645C1ABF194610467FEA655C1CBF0B46024650EA013406BF52EA033591EA030F41F4002148
:402DC00030BD00BF90F0000F04BF0021704730B54FF4806404F132044FF000054FF0000150E700BF90F0000F04BF0021704730B54FF4806404F1320410F0004548BF40421D
:402E00004FF000013EE700BF42004FEAE2014FEA31014FEA02701FBF12F07F4393F07F4F81F06051704792F0000F14BF93F07F4F704730B54FF4607401F0004521F000413E
:402E400020E700BF50EA010208BF704730B54FF000050AE050EA010208BF704730B511F0004502D5404261EB41014FF4806404F132045FEA915C3FF4DCAE4FF003025FEA1F
:402E8000DC0C18BF03325FEADC0C18BF033202EBDC02C2F1200300FA03FC20FA02F001FA03FE40EA0E0021FA02F11444C1E600BF70B54FF0FF0C4CF4E06C1CEA11541DBFF9
:402EC0001CEA135594EA0C0F95EA0C0F00F0DEF82C4481EA030621EA4C5123EA4C5350EA013518BF52EA033541F4801143F4801338D0A0FB02CE4FF00005E1FB02E506F078
:402F00000042E0FB03E54FF00006E1FB03569CF0000F18BF4EF0010EA4F1FF04B6F5007F64F5407404D25FEA4E0E6D4146EB060642EAC62141EA55514FEAC52040EA5E5044
:402F40004FEACE2EB4F1FD0C88BFBCF5E06F1ED8BEF1004F08BF5FEA500E50F1000041EB045170BD06F0004646EA010140EA020081EA0301B4EB5C04C2BFD4EB0C0541EA52
:402F8000045170BD41F480114FF0000E013C00F3AB8014F1360FDEBF002001F0004170BDC4F10004203C35DA0C341BDC04F11404C4F1200500FA05F320FA04F001FA05F287
:402FC00040EA020001F0004221F0004110EBD37021FA04F642EB06015EEA430E08BF20EAD37070BDC4F10C04C4F1200500FA04F320FA05F001FA04F240EA020001F00041D1
:4030000010EBD37041F100015EEA430E08BF20EAD37070BDC4F1200500FA05F24EEA020E20FA04F301FA05F243EA020321FA04F001F0004121FA04F220EA020000EBD37071
:403040005EEA430E08BF20EAD37070BD94F0000F0FD101F00046400041EB010111F4801F08BF013CF7D041EA060195F0000F18BF704703F00046520043EB030313F4801F36
:4030800008BF013DF7D043EA0603704794EA0C0F0CEA135518BF95EA0C0F0CD050EA410618BF52EA4306D1D181EA030101F000414FF0000070BD50EA410606BF104619468C
:4030C00052EA430619D094EA0C0F02D150EA013613D195EA0C0F05D152EA03361CBF104619460AD181EA030101F0004141F0FE4141F470014FF0000070BD41F0FE4141F489
:40310000780170BD70B54FF0FF0C4CF4E06C1CEA11541DBF1CEA135594EA0C0F95EA0C0F00F0A7F8A4EB050481EA030E52EA03354FEA013100F088804FEA03334FF0805509
:4031400045EA131343EA12634FEA022245EA111545EA10654FEA00260EF000419D4208BF964244F1FD0404F5407402D25B084FEA3202B61A65EB03055B084FEA32024FF424
:4031800080104FF4002CB6EB020E75EB030E22BFB61A754640EA0C005B084FEA3202B6EB020E75EB030E22BFB61A754640EA5C005B084FEA3202B6EB020E75EB030E22BF95
:4031C000B61A754640EA9C005B084FEA3202B6EB020E75EB030E22BFB61A754640EADC0055EA060E18D04FEA051545EA16754FEA06164FEAC30343EA52734FEAC2025FEA46
:403200001C1CC0D111F4801F0BD141EA00014FF000004FF0004CB6E711F4801F04BF01430020B4F1FD0C88BFBCF5E06F3FF6AFAEB5EB030C04BFB6EB020C5FEA500C50F159
:40324000000041EB045170BD0EF0004E4EEA113114EB5C04C2BFD4EB0C0541EA045170BD41F480114FF0000E013C90E645EA060E8DE60CEA135594EA0C0F08BF95EA0C0FA9
:403280003FF43BAF94EA0C0F0AD150EA01347FF434AF95EA0C0F7FF425AF104619462CE795EA0C0F06D152EA03353FF4FDAE1046194622E750EA410618BF52EA43067FF43E
:4032C000C5AE50EA41047FF40DAF52EA43057FF4EBAE12E74FF0FF3C06E000BF4FF0010C02E000BF4FF0010C4DF804CD4FEA410C7FEA6C5C4FEA430C18BF7FEA6C5C1BD084
:4033000001B050EA410C0CBF52EA430C91EA030F02BF90EA020F0020704710F1000F91EA030F58BF994208BF90422CBFD8176FEAE37040F0010070474FEA410C7FEA6C5C02
:4033400002D150EA013C07D14FEA430C7FEA6C5CD6D152EA033CD3D05DF8040B704700BF8446104662468C461946634600E000BF01B5FFF7B7FF002848BF10F1000F01BD33
:403380004DF808EDFFF7F4FF0CBF012000205DF808FB00BF4DF808EDFFF7EAFF34BF012000205DF808FB00BF4DF808EDFFF7E0FF94BF012000205DF808FB00BF4DF808ED6F
:4033C000FFF7CEFF94BF012000205DF808FB00BF4DF808EDFFF7C4FF34BF012000205DF808FB00BF4FEA4102B2F1E04324BFB3F5001CDCF1FE5C0DD901F0004C4FEAC002F3
:403400004CEA5070B2F1004F40EB830008BF20F00100704711F0804F21D113F13872BCBF01F00040704741F480114FEA5252C2F11802C2F1200C10FA0CF320FA02F018BF59
:4034400040F001004FEAC1234FEAD32303FA0CFC40EA0C0023FA02F34FEA4303CCE77FEA625307D150EA01331EBF4FF0FE4040F44000704701F0004040F0FE4040F4000094
:40348000704700BF80F0004002E000BF81F0004142001FBF5FEA410392EA030F7FEA226C7FEA236C6AD04FEA1262D2EB1363C1BFD218414048404140B8BF5B42192B88BFBC
:4034C000704710F0004F40F4000020F07F4018BF404211F0004F41F4000121F07F4118BF494292EA030F3FD0A2F1010241FA03FC10EB0C00C3F1200301FA03F100F0004344
:4035000002D5494260EB4000B0F5000F13D3B0F1807F06D340084FEA310102F10102FE2A51D2B1F1004F40EBC25008BF20F0010040EA03007047490040EB000010F4000F26
:40354000A2F10102EDD1B0FA80FCACF1080CB2EB0C0200FA0CF0AABF00EBC25052421843BCBFD0401843704792F0000F81F4000106BF80F400000132013BB5E74FEA4103C5
:403580007FEA226C18BF7FEA236C21D092EA030F04D092F0000F08BF0846704790EA010F1CBF0020704712F07F4F04D1400028BF40F00040704712F100723CBF00F5000001
:4035C000704700F0004343F0FE4040F4000070477FEA226216BF08467FEA23630146420206BF5FEA412390EA010F40F4800070474FF0000304E000BF10F0004348BF4042E3
:403600005FEA000C08BF704743F0964301464FF000001CE050EA010208BF70474FF000030AE000BF50EA010208BF704711F0004302D5404261EB41015FEA010C02BF8446BC
:403640000146002043F0B64308BFA3F18053A3F50003BCFA8CF2083AA3EBC25310DB01FA02FC634400FA02FCC2F12002BCF1004F20FA02F243EB020008BF20F001007047B4
:4036800002F1200201FA02FCC2F1200250EA4C0021FA02F243EB020008BF20EADC7070474FF0FF0C1CEAD0521EBF1CEAD15392EA0C0F93EA0C0F6FD01A4480EA010C400290
:4036C00018BF5FEA41211ED04FF0006343EA501043EA5111A0FB01310CF00040B1F5000F3EBF490041EAD3715B0040EA010062F17F02FD2A1DD8B3F1004F40EBC25008BFBC
:4037000020F00100704790F0000F0CF0004C08BF49024CEA502040EA51207F3AC2BFD2F1FF0340EAC250704740F400004FF00003013A5DDC12F1190FDCBF00F0004070470E
:40374000C2F10002410021FA02F1C2F1200200FA02FC5FEA310040F1000053EA4C0308BF20EADC70704792F0000F00F0004C02BF400010F4000F013AF9D040EA0C0093F0CF
:40378000000F01F0004C02BF490011F4000F013BF9D041EA0C018FE70CEAD15392EA0C0F18BF93EA0C0F0AD030F0004C18BF31F0004CD8D180EA010000F00040704790F0C7
:4037C000000F17BF90F0004F084691F0000F91F0004F14D092EA0C0F01D142020FD193EA0C0F03D14B0218BF084608D180EA010000F0004040F0FE4040F40000704740F01B
:40380000FE4040F4400070474FF0FF0C1CEAD0521EBF1CEAD15392EA0C0F93EA0C0F69D0A2EB030280EA010C49024FEA402037D04FF0805343EA111143EA10130CF000405D
:403840008B4238BF5B0042F17D024FF4000C8B4224BF5B1A40EA0C00B3EB510F24BFA3EB510340EA5C00B3EB910F24BFA3EB910340EA9C00B3EBD10F24BFA3EBD10340EA8E
:40388000DC001B0118BF5FEA1C1CE0D1FD2A3FF650AF8B4240EBC25008BF20F0010070470CF0004C4CEA50207F32C2BFD2F1FF0340EAC250704740F400004FF00003013A8A
:4038C00037E792F0000F00F0004C02BF400010F4000F013AF9D040EA0C0093F0000F01F0004C02BF490011F4000F013BF9D041EA0C0195E70CEAD15392EA0C0F08D142021B
:403900007FF47DAF93EA0C0F7FF470AF084676E793EA0C0F04D14B023FF44CAF08466EE730F0004C18BF31F0004CCAD130F000427FF45CAF31F000437FF43CAF5FE700BF96
:403940004FF0FF3C06E000BF4FF0010C02E000BF4FF0010C4DF804CD4FEA40024FEA41037FEA226C18BF7FEA236C11D001B052EA530C18BF90EA010F58BFB2EB030088BF8F
:40398000C81738BF6FEAE17018BF40F0010070477FEA226C02D15FEA402C05D17FEA236CE4D15FEA412CE1D05DF8040B704700BF844608466146FFE70FB5FFF7C9FF002836
:4039C00048BF10F1000F0FBD4DF808EDFFF7F4FF0CBF012000205DF808FB00BF4DF808EDFFF7EAFF34BF012000205DF808FB00BF4DF808EDFFF7E0FF94BF012000205DF842
:403A000008FB00BF4DF808EDFFF7D2FF94BF012000205DF808FB00BF4DF808EDFFF7C8FF34BF012000205DF808FB00BF4FEA40024FEA41037FEA226C02D15FEA402C08D186
:403A40007FEA236C02D15FEA412C02D14FF0000070474FF001007047014B1868704700BF4881FF1F0E4B70B51E460E4C0025E41AA410A54204D056F8253098470135F8E777
:403A800003F088FF084B094C1E46E41AA4100025A54204D056F8253098470135F8E770BDA0790000A0790000A0790000A8790000024B0146186800F063B800BF4881FF1FF9
:403AC00010B5431E0A44914204D011F8014B03F8014FF8E710BD03460244934202D003F8011BFAE77047000038B50546002944D051F8043C0C1F002BB8BFE41801F082FB45
:403B00001E4A1368114613B96360146030E0A3420DD92268A018834201BF18685B681218226063600C6023E0A24203D813465A68002AF9D118681918A1420BD12168014479
:403B400058188242196013D110685268014419605A600DE002D90C232B6009E021686018824201BF106852680918216062605C602846BDE8384001F046BB38BD2482FF1F92
:403B800070B5CD1C25F0030508350C2D38BF0C25002D064601DBA94202D90C23336046E001F030FB234B1C681A462146A1B10B685B1B0ED40B2B03D90B60CC18CD501EE0CB
:403BC0008C420BBF63684B681360636018BF0C4615E00C464968E9E7174C23681BB9304600F09EFC20602946304600F099FC431C18D0C41C24F00304A0420DD125603046DF
:403C000001F001FB04F10B00231D20F00700C31A0ED05A42E25070BD211A304600F080FC0130EBD10C233360304601F0ECFA002070BD00BF2482FF1F2082FF1F2DE9F04794
:403C400088B0149F002B1E461299B8BF03F1004327F02007B6BF1E4600232D23462F1446109DDDF84CA00B7003D0452F03D1013501E0032300E0022307AA049206AA039246
:403C80008DE828042246334600F012FD472F804602D1119BDB0728D5462F08EB050911D198F80030302B0AD10022002320463146FFF766FB18B9C5F10105CAF80050DAF8B1
:403CC000003099440022002320463146FFF758FB08B9302202E0CDF81C9006E0079B994503D9591C07911A70F8E74046079B159AC8EB0303136008B0BDE8F087034673B5E6
:403D00000029B8BF494203F8022BB4BF2D222B22092942701ADD0DF1070216460A2591FBF5F405FB1411092C01F1300102F8011D2146F4DC3031541E02F8011CB4421A4633
:403D40000AD214F8012B03F8012BF7E71A463024214402F8024B5970101A02B070BD00002DE9F04F91B00C46DDF8688016461F46054601F035FA03681846099300F004FCD2
:403D800000230E93D8F800300A90073323F0070303F1080294F81890D4F800B0C8F80020D3E90023C4E91223D4F84CA0D4F848802AF000430B934FF0FF32A74B40460B992C
:403DC00001F0A0FEA0B94FF0FF32A34B40460B99FFF7EAFA60B90022002340465146FFF7D9FA10B12D2384F843309C4B9C4A0AE0424653464046514601F084FE002800F0B5
:403E00009281984B984AB9F1470F8CBF90469846032323612BF0040323604FF0000A3DE0B9F1670F00F08A81B9F1470F00F0868123600193636800210DF133020590029285
:403E40000093424653460691CDF81090CDF80CE02846FFF7F3FE09F0DF03472B804600F08481B9F1650F0D9900F28D8101394A4604F150000D91FFF741FF0E9A82468318D2
:403E8000012A236100F37C812268D10700F178819DF8333013B12D2384F84330009733460FAA2146284600F09FF9013002D14FF0FF3096E123685A0501D4236965E0B9F1D3
:403EC000650F40F2D580D4E9120100220023FFF757FA78B30123654A31462846B8470130E5D00E9B0D9A9A420BDB2368D80708D423689B0740F111814FF0000804F11909FD
:403F000006E10A9B099A31462846B8470130CED04FF0000804F11A090E9B013B9845E7DA01234A4631462846B8470130BFD008F10108F1E70D9B002B29DC01234B4A314683
:403F40002846B8470130B2D00D9B23B90E9B13B92368D907CCD50A9B099A31462846B8470130A4D04FF0000904F11A0A0D9B5B42994509DA0123524631462846B847013013
:403F800095D009F10109F1E70E9B4246A7E00E9AA36D9A42A8BF1A46002A914606DC4FF0000A29EAE97904F11A0B11E01346314642462846B8470130F1D178E701235A4626
:403FC00031462846B84701303FF471AF0AF1010AA36DC9EB03029245F0DB08EB03090D9A0E9B9A420FDB2368DA070CD40E9B0D9A9844C9EB08089B1A9845A8BF9846B8F117
:40400000000F08DC0FE00A9B099A31462846B8470130EBD14BE743464A4631462846B84701303FF444AF4FF0000928EAE87804F11A0A09E00123524631462846B847013072
:404040003FF435AF09F101090D9A0E9B9B1AC8EB03039945EEDB4BE7FFFFEF7F367800003A7800003E78000042780000467800000E9A012A01DCDB0738D5012342463146D2
:404080002846B84701303FF412AF0A9B099A31462846B84701303FF40AAFD4E9120100220023FFF76DF920B14FF0000804F11A090EE00E9B08F10102013B19E001234A4608
:4040C00031462846B84701303FF4F1AE08F101080E9B013B9845F1DB534604F1500231462846B84701307FF403AFE0E64246012331462846B8470130EED1D8E601234A4677
:4041000031462846B84701303FF4D1AE08F10108E3680F9A9B1A9845F0DBE0680F9B9842B8BF18465DE062680EA8531C0DF1340E4BF480637FF474AE062201E012B90122AA
:40414000626075E6002106910DF133018DE80C00236005904246CDF81090CDF80CE0029153462846FFF76AFD80460D9BD81C02DB626893421DDDA9F102095FFA89F970E65C
:404180000133236184E6B9F1660F14D10029636807DD216113B92268D2071DD501330B4419E013B92268D00701D5023313E0012311E04FF067090D9B0E9A934205DB226864
:4041C0002361D10708D5013305E0002BD4BFC3F102030123134423610D9B4FF0000AA36556E611B0BDE8F08F2DE9F04791461F460A698B6806469342B8BF1346C9F800300C
:4042000091F843200C46DDF8208012B10133C9F800302368990642BFD9F800300233C9F80030256815F0060510D104F1190A07E00123524639463046C04701301AD001350B
:40424000E368D9F800209B1A9D42F1DB94F843302268003318BF012392060FD5E118302081F843005A1C94F845102244023382F8431003E04FF0FF30BDE8F08704F1430204
:4042800039463046C0470130F4D02268D9F80050E36802F00602042A08BF5D1B2269A3680CBF25EAE57500259342C4BF9B1AED184FF000091A344D4509D0012322463946A3
:4042C0003046C0470130D5D009F10109F3E70020BDE8F0872DE9F04317460A7E85B06E2A984606460C460C9B01F1430E00F0AE8011D8632A22D009D8002A00F0BB80582AB2
:4043000040F0CA8081F84520834955E0642A1ED0692A1CD0C0E0732A00F0B08009D86F2A2ED0702A40F0B8800A6842F020020A603EE0752A24D0782A3AD0ADE01A6801F1C4
:404340004205111D1960136884F84230A8E021681A6811F0800F02D0111D196008E011F0400F02F10401196002D0B2F9003000E01368002B3CDA2D225B4284F8432037E076
:4043800021681A6811F0800F02D0111D196007E011F0400F02F10401196001D0138800E01368227E5C496F2A14BF0A2208221BE078225A4984F845202268186812F0800FBF
:4043C00000F104051D6003D1550601D5038800E00368D00744BF42F0200222601BB9226822F0200222601022002084F8430001E049490A226568002DA56008DB206820F07D
:40440000040020602BB9002D7DD175460CE0002B79D07546B3FBF2F002FB1033CB5C05F8013D03460028F5D1082A0BD12368DA0708D5236962689A42DEBF302305F8013CA7
:4044400005F1FF35C5EB0E0323612EE008681A6810F0800F496903D0101D1860136808E010F0400F02F104001860136801D0198000E0196000232361754616E01A68111DAD
:404480001960156800216268284600F0ADFE08B1401B6060636804E004F1420584F8422001232361002384F84330CDF800803B4603AA21463046FFF797FE013002D14FF09D
:4044C000FF3026E023692A4639463046C0470130F5D023689B0710D5002504F1190907E001234A4639463046C0470130E7D00135E368039A9B1A9D42F2DBE068039B98428D
:40450000B8BF184605E00B7804F1420584F842308AE705B0BDE8F083487800005978000038B5064C0023054608462360FDF7D6FA431C02D1236803B12B6038BD108FFF1F55
:404540000EB400B54FF402719CB0ADF814106FF00041049107914FF6FF711DAB02900690084853F8042BADF81610006802A9019301F088F9029B00221A701CB05DF804EB80
:4045800003B070474881FF1F034613F8012B002AFBD1181A013870472DE9F74F03690C6980469C427FDC013C01F114074FEA840E00F1140606EB0E0357F82450019356F80F
:4045C00024300135B3FBF5F507EB0E09C5B34FF0000A3846B446D34650F8043B9AB205FB02A21B0C4FEA124A05FB03A392B2C2EB0B0BBCF800204FEA134A5A441FFA83FBBF
:40460000DCF800308145CBEB134303EB224392B242EA03424FEA234B4CF8042BDCD256F80E306BB9019B043B9E421A4602D3C8F8104005E01268043B002AF8D1013CF3E77C
:40464000404600F0EEFF00282BDB304601354FF0000E57F8042B036891B2C1EB0E0E120C99B27144C2EB134303EB214389B24FEA234EB94541EA034340F8043BE9D256F875
:40468000242006EB840362B9043B9E421A4602D3C8F8104005E01268043B002AF8D1013CF3E7284600E0002003B0BDE8F08F00002DE9F04F456A95B08246219CCDE9022329
:4046C00045B91020FFF7F4F9CAF82400456085600560C560DAF82430196859B15A68012393404A608B60504600F0C3FDDAF8243000221A60039BA04A002BBDBF01232360D2
:40470000039B0023BCBF23F000430393DDF80C80A8BF236028F000431B0D1B0593421DD142F20F73209A1360029B43B9934A944BC8F31300002814BF1846104600E0904833
:40474000229B002B00F04685C37813B100F1080300E0C31C229A136000F03CBDDDE902450022002320462946FEF70AFE074658B1209A01231360229B002B00F01E858148B5
:404780001860013800F026BD12AB019313AB009322462B46504600F0BFFFC8F30A56049056B1C5F3130343F07F51204641F44011A6F2FF3611971DE0139B129E1E4406F219
:4047C0003243202B0ADD029A06F21240C3F1400322FA00F008FA03F3184304E0C3F12000029B03FA00F0FEF7EDFA0123A1F1F871013E11930022644BFEF7A6F958A3D3E99A
:404800000023FEF755FB58A3D3E90023FEF79EF9044630460D46FEF7E5FA55A3D3E90023FEF746FB02460B4620462946FEF78EF904460D4601F07CF9002283460023204655
:404840002946FEF7A7FD58B15846FEF7CBFA02460B4620462946FEF793FD08B90BF1FF3BBBF1160F0DD8DDE90223484901EBCB01D1E90001FEF7ACFD30B10BF1FF3B002368
:4048800000E00123109300E01090129B9E1B731E079343BFC3F10008002307934FF00008BBF1000F06DB079BCDF82CB05B440793002705E00023CBEB0808CBF100070B9310
:4048C0001E9B092B28D8052BC4BF043B1E931E9BC8BF0025A3F10203D8BF0125032B20D8DFE803F0060E0204012302E0012308E000230A931F9B002B1DDD9946059321E04A
:4049000000230A931F9B0BEB030909F10103012B0593B8BF012315E0012500231E930A9501E001230A934FF0FF390022CDF8149012231F9206E04FF001094B46CDF814905D
:40494000CDF87C90DAF8244000226260042101F114029A421CD86268490001326260F6E761436F63A787D23FB3C8608B288AC63FFB799F501344D33F0000F07F6A7800007B
:4049800073780000477800000000F83F807800006168504600F038FCDAF8243020601B680693059B0E2B00F25B81002D00F05881DDE90234BBF1000FCDE90E3430DD9F4A97
:4049C0000BF00F034FEA2B1502EBC303E80618CBCDE908340CD5DDE90E01994B05F00F05D3E90823FEF78EFB0324CDE9020100E00224934E6DB1E90708D5DDE90801D6E973
:404A00000023FEF755FACDE9080101346D100836F0E7DDE90823DDE90201FEF773FB20E0CBF1000505B3DDE90E01844B05F00F0203EBC203D3E90023FEF73AFACDE90201D5
:404A40007F4E2D110023022455B1EA0705D5D6E90023FEF72DFA013401236D100836F3E71BB1CDE9020100E00224109BE3B1DDE902560022734B28463146FEF78BFC98B1B3
:404A8000059B8BB1B9F1000F40F3E6800BF1FF330893314600226C4B2846FEF709FA0134CDE902014E4602E0059ECDF820B02046FEF798F9DDE90223FEF7FAF9634B00221E
:404AC000FEF744F8A1F1507304460C931D46D6B9DDE9020100225E4BFEF736F822460C9BCDE90201FEF774FC002840F03F820C99224601F10043DDE90201FEF74BFC0028E9
:404B000040F02B82A8E00A9A4C4B711E002A49D003EBC103D3E9002300204E49FEF7F2FA22462B46FEF710F8CDE90C01069CDDE9020100F0FDFF0546FEF754F902460B46C4
:404B4000DDE90201FEF700F8DDE90C23303504F8015BCDE90201FEF71DFC002840F01D83DDE9022300203749FDF7EEFFDDE90C23FEF710FC002840F0D180069BE31AB34270
:404B80006ADADDE90C0100222F4BFEF791F90022CDE90C01DDE902012B4BFEF789F9CDE90201C4E703EBC1012246D1E900012B46FEF77EF9069BCDE90C011D469C19DDE9D2
:404BC000020100F0B5FF0646FEF70CF902460B46DDE90201FDF7B8FF303605F8016BAC42CDE902014FF0000222D11A4BDDE90C01FDF7ACFF02460B46DDE90201FEF7E8FB00
:404C0000002840F08B80DDE90C2300201149FDF79BFF02460B46DDE90201FEF7BBFBD8B114F8013C621E302B40F0B7821446F7E7054BFEF73DF9CDE90201C0E780780000E6
:404C4000587900000000F03F0000244000001C40000014400000E03FDDE90E34CDE90234139B002B7CDBBBF10E0F79DCAB4B03EBCB03D3E900671F9B002B14DA059B002B4C
:404C800011DC40F06C810022A54B30463946FEF70FF9DDE90223FEF791FB059D2E46002840F05F8165E1069CDDE9028932463B4640464946FEF726FA00F03AFF0546FEF767
:404CC00091F832463B46FEF7F3F80B46024649464046FDF739FF05F1300E069B04F801EBC3EB040E059B73452DD102460B46FDF72DFF8046894602460B4630463946FEF7D4
:404D000049FB78B942464B4630463946FEF738FB002800F04482EB0704D440E2DDF820B000E01C4614F8012C631E392A07D1069A9A42F6D1069930220BF1010B0A701A78DA
:404D400001321A702BE20022764BFEF7B1F80022002380468946FEF713FB0028A6D01EE20A9A002A2BD01E9A012A0ADC119A12B103F2334302E0129BC3F136033D46444679
:404D800013E0059B5D1EAF42BFBF0B9BEA1B9B180B93059BB6BF2F467D1B0025002BA7BF4446059BC3EB08040023079A01211A4450469844079200F0FBFA064602E03D46D9
:404DC00044460A9E5CB1079B002B08DDA342A8BF2346079AC3EB0808E41AD31A0793002F1DDD0A9BABB18DB131462A46504600F079FB049A01460646504600F0E2FA0499B0
:404E00000890504600F035FA089B04937A1B06D000E03A460499504600F064FB04900121504600F0C5FA0B9B05465BB31A460146504600F057FB1E9B0546012B18DC029B64
:404E400083B9039BC3F3130373B9039B23F000473F0D3F054FB1079B08F1010801330793012702E0002700E0029F0B9B73B100E000272B6905EB8303186900F04CFAC0F171
:404E8000200004E01E9B012BD9DD0B9F0120079B184410F01F0008D0C0F12003042B02DDC0F11C0002E006D018461C30079B8044034404440793B8F1000F05DD4246049934
:404EC000504600F05DFB0490079B002B05DD29461A46504600F054FB0546109B23B32946049800F09EFB00281EDA00230A220499504600F0D5F90A9B0BF1FF3B0490002B93
:404F000000F05F81314600230A22504600F0C8F9B9F1000F06463FDC3BE000BF807800000000144000002440059B002B2BDC1E9B022B28DDDDF81490B9F1000F11D12946AA
:404F40004B460522504600F0ABF901460546049800F067FB00280CDC03E0354600E000252E461F9B069C6FEA030B09E03546DDF820B0069B069A5C1C312313700BF1010B84
:404F800005960026F7E00A9BDDF8149023B9069CB2E01E9B022BCFDC002C05DD31462246504600F0EDFA06469FB17168504600F02BF90446326906F10C01023292000C3036
:404FC000FEF77EFD01222146504600F0D9FA059000E00596029B069F03F00103079329460498FFF7D9FA3146044600F13008049800F017FB059A02902946504600F02DFBD1
:40500000C36802463BB901460A90049800F009FB0A9A034600E00123114650460A9300F028F90A9B53B91E9A42B9079A32B9B8F1390F2AD0029B002B1CDC1DE0029A002AAE
:4050400004DB1BD11E9ACAB9079ABAB9002B13DD01220499504600F093FA2946049000F0E0FA002803DC07D118F0010F04D0B8F1390F0AD004F131087C1C0CE0002B07F1F0
:4050800001040BDDB8F1390F03D139233B70013756E008F1010887F800806CE0069B2746E31A4B4504F8018C3BD000230A220499504600F0F5F8059B04909E424FF00A028F
:4050C0004FF000033146504604D100F0E9F80646059084E700F0E4F8002306460A220599504600F0DDF8059079E700230A220499504600F0D5F8049029460498FFF74CFA00
:40510000069B00F1300804F8018BE31A4B45ECDB069B0596B9F1010FACBF4B4401331F46002601220499504600F02AFA2946049000F077FA002803DC15D118F0010F12D065
:405140003C4614F8013C621E392B09D1069B934204D10BF1010B3123069A02E01446F0E70133137007E03C4614F8013C621E302B01D11446F8E72946504600F07AF8059BF6
:405180006BB12EB19E4203D03146504600F071F80599504600F06DF801E0DDF820B00499504600F066F80023209A23700BF101031360229B1BB11C6001E008480AE00698AA
:4051C00008E0B9F1000F3FF7E2AE1E9B022B7FF7DEAEB1E615B0BDE8F08F00BF46780000004870474C81FF1F10B5C9B202449042034605D01C7801308C42F8D1184610BD7C
:40520000002010BD7047704770B5456A04460E463DB91020FEF74CFC6062456085600560C560656AEB6843B1636ADB6853F8260078B1026843F8262017E0212204212046F8
:4052400000F0B8FA636AE860DB68002BECD1002070BD012101FA06F56A1D9200204600F0A9FA0028F3D04660856000230361C36070BD70B5446A06460D463CB91020FEF7FC
:4052800017FC7062446084600460C4603DB1736A6A68DB6853F82210296043F8225070BD2DE9F04106460C460D691F4601F1140E0023DEF80000013381B202FB0171000C8A
:4052C0000F0C02FB007089B201EB00419D424FEA10474EF8041BECDCD7B1A3689D4212DB616830460131FFF78FFF8046226904F10C01023292000C30FEF7E2FB21463046CA
:40530000FFF7B7FF444604EB850301355F6125612046BDE8F081030C1B0413B90004102300E0002310F07F4F04BF0002083310F0704F04BF0001043310F0404F04BF80003A
:405340000233002803DB420003D5581C70471846704720207047036813F007020BD0D90722D49A074BBF5B089B08036003604CBF01200220704799B209B91B0C102213F094
:40538000FF0F04BF1B0A0832190704BF1B090432990704BF9B080232D90702D45B0805D00132036010467047002070472020704710B50C460121FFF727FF01224461026167
:4053C00010BD2DE9F74F14460A69236988469A42BEBF0B46A0461C46D8F81070D4F81090D8F80830D8F8041007EB09069E42C8BF0131FFF709FF00F114052B4605EB860C2E
:405400000022634502D243F8042BFAE704F1140208F1140102EB890301EB87070093009B0192934257D9B2F800B0BBF1000F23D08946AE464FF0000859F8044BBEF800A0A9
:40544000A3B20BFB03A34FEA144ADEF8004043444FEA14480BFB0A84F24604EB13449BB243EA04434F454FEA14484AF8043B01D9D646E1E7CEF80480019B0432B3F802A0BE
:40548000BAF1000F21D02C4689462B684FF00008B9F800E0B4F802B09BB20AFB0EBEA346F04443EA08434BF8043B59F8043BB4F804E01B0C0AFB03E34F4503EB18434FEABA
:4054C000134801D95C46E3E763600435A7E75CF8043D13B9013E002EF9DC066103B0BDE8F08F00002DE9F843154612F0030206460F4607D0214C013A002354F82220FFF726
:40550000CFFE0746AD1036D0746A3CB91020FEF7CFFA7062446084600460C460D6F82480D8F808404CB940F271213046FFF740FF04460023C8F8080003604FF00008EB071C
:405540000AD5394622463046FFF73BFF814639463046FFF78EFE4F466D100CD0206808B10446ECE7224621463046FFF72AFF2060C0F80080F4E73846BDE8F88348790000DF
:405580002DE9F0470C460746914626694FEA621A56444968A368751CAB4202DA01315B00FAE73846FFF730FE002380461A4600F11401534503DA41F823200133F9E72AEABC
:4055C000EA73206901EB830319F01F0904F1140101EB800E14D0C9F1200C002208689A4600FA09F0024343F8042B51F8042B8E4522FA0CF2F2D8CAF8042042B1B51C06E001
:40560000043B51F8042B8E4543F8042FF9D8013D3846C8F810502146FFF72BFE4046BDE8F08703690A6910B59B1A11D192001430143183180A4453F8044D52F8041D8C4289
:4056400002D007D3012010BD9842F4D3002010BD184610BD4FF0FF3010BD2DE9F8430C460746114620461546FFF7DBFF061E08D131463846FFF7C8FD012303614661BDE843
:40568000F883BCBF23462C4638466168BABF1D4601260026FFF7B8FD2B69C660266905F1140904F1140101EB860709EB830800F114054FF0000C51F8042B59F8044B93B2EE
:4056C0009C44A3B2240CC3EB0C03C4EB124202EB23429BB24FEA224CC84543EA02428E4645F8042BE7D8BE450ED25EF8041B8AB26244131403EB114392B242EA03424FEA31
:40570000234C45F8042BEEE755F8043D0BB9013EFAE70661BDE8F8832DE9F3411C4601219046089E099DFFF76FFDC4F31302C4F30A5407460CB142F480120192B8F1000F70
:4057400019D002A840F8088DFFF705FE009B48B1019AC0F1200102FA01F10B43C2407B61019200E07B61019B002B14BF02210121BB61396107E001A8FFF7EDFD019B0121A3
:405780007B613961203034B1A4F2334404443460C0F1350009E0A0F2324007EB810330601869FFF7B8FDC0EB41102860384602B0BDE8F08138B502FB01F42146FEF7E0F972
:4057C000054618B122460021FEF785F9284638BD2DE9F0478E6882469E420C46914698463ED88A8912F4906F3AD02568096902236F1A656905EB450595FBF3F57B1C4344C1
:405800009D4238BF1D4653050FD52946FEF7B8F9064698B13A462169FEF752F9A38923F4906343F08003A38113E02A4600F039F9064670B921695046FEF756F90C23CAF8A0
:405840000030A3894FF0FF3043F04003A381BDE8F08726613E44266046466561ED1BA560464528BF464649463246206800F0FEF8A36800209B1BA36023681E442660BDE84B
:40588000F08700002DE9F04F9DB003938B8980461C060D4616460DD50B695BB94021FEF76FF92860286118B90C23C8F80030CDE040236B610023099320238DF82930DFF8D2
:4058C0009CB130238DF82A3037463C4614F8013B1BB9B7EB060910D003E0252BF9D02746F3E74B46324629464046FFF771FF013000F0A780099B4B4409933B78002B00F0F1
:40590000A08000234FF0FF3204930793059206938DF853301A930126052221784E48FFF763FC671C049B38B14B4A3C46801A06FA00F018430490EFE7D90644BF20228DF8B2
:4059400053201A0744BF2B228DF8532022782A2A03D0079A00210A200BE0039A111D12680391002A10DA524243F00200079204900BE027463B780134303B092B03D800FB1B
:4059800002320121F5E701B107923B782E2B1ED17B782A2B0AD1039B02371A1D1B680392002BB8BF4FF0FF33059310E0002319460593781C0A2407463A780130303A092AE2
:4059C00003D804FB01210123F5E703B10591032239782248FFF708FC40B14023CBEB000003FA00F0049B013718430490397806221B487E1C8DF82810FFF7F6FB88B1194B53
:405A000033B9039B073323F007030833039314E003AB00932A46144B04A94046FEF7A0F907E003AB00932A460F4B04A94046FEF751FCB0F1FF3F824603D0099B5344099337
:405A400042E7AB895B0601D4099801E04FF0FF301DB0BDE8F08F00BF80790000867900008A790000613D0000D1570000884210B501EB020301D8421E0BE09842FBD281184E
:405A8000D21AD34204D013F8014D01F8014DF8E710BD994204D011F8014B02F8014FF8E710BDF8B5074615460E4621B91146BDE8F840FEF765B81AB9FEF716F82846F8BD09
:405AC00000F015F885420ED929463846FEF758F8044650B131462A46FDF7F2FF31463846FEF702F801E03046F8BD2046F8BD51F8040C0028BEBF091851F8043CC0180438EB
:405B0000704700004FEA410C7FEA6C5C02D150EA013C0AD14FEA430C7FEA6C5C02D152EA033C02D14FF0000070474FF0010070474FEA410212F5001215D211D56FF478735B
:405B4000B3EB625212D94FEAC12343F0004343EA505311F0004F23FA02F018BF404270474FF00000704750EA013005D111F0004008BF6FF0004070474FF00000704700BFCC
:405B80000000000000000000487C253033647C2530362E32667C2530352E32667C2530352E32667C25637C25630D0A00547C253033647C2530362E32667C25303478253056
:405BC0003478253034787C25637C25630D0A0000507C253033647C25737C25637C25630D0A0000002530326425303264253032642D2530326425303264000000527C3030FC
:405C0000307C25737C25630D0A000000507C3030307C25737C25630D0A000000417C3030307C2530362E326C667C2530366C757C25647C25630D0A00457C3030307C466178
:405C4000756C74202D205254442048696768205468726573686F6C647C25647C25630D0A00000000457C3030307C4661756C74202D20525444204C6F7720546872657368EB
:405C80006F6C647C25647C25630D0A00457C3030307C4661756C74202D20524546494E2D203E20302E3835207820426961737C25647C25630D0A0000457C3030307C46619A
:405CC000756C74202D20524546494E2D203C20302E383520782042696173202D20464F5243452D206F70656E7C25647C25630D0A00000000457C3030307C4661756C7420DF
:405D00002D20525444494E2D203C20302E383520782042696173202D20464F5243452D206F70656E7C25647C25630D0A00000000457C3030307C4661756C74202D20556EF6
:405D40006465722F4F76657220766F6C746167657C25647C25630D0A000000004D7C3030307C2530362E326C667C25647C25630D0A000000547C3030307C2530362E326C06
:405D8000667C2530327825303278253032782530327825303278253032787C25630D0A00444F4E450D0A0000457C3030307C6573632074696D6564206F75740D0A000000E5
:405DC0000102030405060F10005EBCE2613FDD83C29C7E20A3FD1F419DC3217FFCA2401E5F01E3BD3E6082DC237D9FC1421CFEA0E1BF5D0380DE3C62BEE0025CDF81633D8B
:405E00007C22C09E1D43A1FF4618FAA427799BC584DA3866E5BB5907DB856739BAE406581947A5FB7826C49A653BD987045AB8E6A7F91B45C6987A24F8A6441A99C7257B82
:405E40003A6486D85B05E7B98CD2306EEDB3510F4E10F2AC2F7193CD114FADF3702ECC92D38D6F31B2EC0E50AFF1134DCE90722C6D33D18F0C52B0EE326C8ED0530DEFB142
:405E8000F0AE4C1291CF2D73CA947628ABF517490856B4EA6937D58B5709EBB536688AD495CB2977F4AA4816E9B7550B88D6346A2B7597C94A14F6A8742AC896154BA9F702
:405EC000B6E80A54D7896B35110018010D510040005B00400D510040005B00400D510040005B00400D510040005B00400110022004400880035B0040244300404000000014
:405F0000405100403000F05100401000000001408003000401408003000E0140000200140140800180160140800080170140800000410140800000430140800000470140DF
:405F40008000004901408000004C01408000000000520040A0610000070010520040A8610000070060520040B0610000060000510140B86100000800004F0040C0610000D2
:405F80000C0000080140CC6100008000800801404C6200008000000A0140CC6200008000800A01404C6300008000000C0140CC6300008000800C01404C64000080000016E6
:405FC0000140CC6400008000001801404C650000800080180140CC6500008000001A01404C6600008000801A0140CC6600008000706400404C6700002000706500406C67B3
:4060000000002000105001408C6700001000005001409C6700001000004D0140AC6700008000804D01402C6800008000804C0140AC6800008000804701402C6900008000F7
:4060400000460140AC6900008000804601402C6A0000800000450140AC6A00008000804501402C6B0000800000440140AC6B00008000804401402C6C00008000001B014019
:40608000AC6C00008000801B01402C6D0000800080150140AC6D00008000001901402C6E0000800080190140AC6E00008000001701402C6F0000800000090140AC6F000024
:4060C0008000800901402C700000800080070140AC7000008000000B01402C7100008000800B0140AC7100008000000D01402C7200008000800D0140AC72000080008003A9
:4061000001402C730000800080490140AC7300008000004801402C740000800080480140AC7400008000804301402C750000800000420140AC7500008000804201402C7616
:406140000000800080410140AC7600008000004001402C770000800080400140AC77000080000000F00000F0000000000F000000940048B4B0009000000000003F0000FFB6
:40618000FF00000000000000200000E2C200C00000000000F00008F0080000000000000000000000F0000000400000000000000090800000480000003B00000000000000A9
:4061C000008000000000000000003600800040009D3F0000E2001840110022409D00000002140D0A1D0280058D0910129D00000042009400003F00000020000000200F1861
:40620000F00700400000380000000040060000000004000000FF07FF4020F0050800000040000000040404043113000140A840200000000000000000000000000000000066
:406240000000000000000000000000000000000000090010000000006140160061000E030014080000101C005C1C03220030000C0080000000000000002C23111A1F008022
:4062800060600F00202082000000100451020000000EC00B19FFFFFF0000F0440C000000010000000404040433330001000000000000C0000000400200000000000000003D
:4062C0000000000000000000000000000000010000000000000000000000000000000000000000000000000002000000000000000000000000000000000000000100020098
:406300000000000000000000000004003204600005CEFD0B1FFFFFFF2200F00C040000000900000004000404031100010000C00040011011C001001140014001000000000A
:4063400000000000000000000000000001100000031900E402600000001900E21F0060667FE7001873180C000021630008080000044000000CFF00005C0023012C60108036
:406380000F1F4C0000082220000004000000000000000000000000000000000000000000000002110404000433300001000000000000000000000000000000000000000092
:4063C00000000000000000000000000000F2010000F2020000D001220063000C0022000000010074000004000000040000F200000023005800000080002200D00460000072
:40640000001F0380002008000000414025030400010C0E0005FFFFFF62A0F0410C000000180004000404040413330001000000000000400200103010001010120000000052
:40644000000000000000000000000000500C000021001A605000000000B6504950000000004B009400D0002302001D0000000000230014805000000023000C001F0E00E002
:4064800040012010008202000000501000000000000000000000000000000000000000000000022C040400041110000100000000000000000000000000000000000000002B
:4064C000000000000000000000000000000000000000000000000000000000000000000000000000000000000000000000000000000000000000000000000000000000009C
:406500000000000022000000000011000000000000000000000000000000000000000000000000000400000000000001000000000000000000000000000000000000000023
:4065400000000000000000000000000000000000100000006C0A113409031014000000085C0002001433000C00000300000000000033200470400C15000000000000600FCD
:4065800000101F60088000080000041023060000000B0C0E15FFFFFF0000F0440C000000010000000404040422220001000000000000C000000040020000000000000000B0
:4065C00000000000000000000000000000000000000020080000300000238C040023080C8C00030001030E2400004025000A0024001003000100860000400000600F0F2089
:406600008A1010400000280200000154030000000004000000FF07FF4020F0050800000000000000040404003202000140A8402000000000000000000000000000000000FF
:406640000000000000000000000000000000630173180C001F0860005C102300001900E402FF00007FE700180300006608210000041900E20C40000001600000101F2C00F4
:406680000F604C800080280A000001002106050004C0000E12FFFFFF62A0F0410C000000000002130404040422220001000000000000400200103010001010120000000072
:4066C00000000000000000000000000000000001000000004400220002000500210042000000080077000000000008000000000000000000770000001000000107000800AB
:406700006000100100000000000004400000000000000000000000000000000000000000180004000404000402200001000000000000000000000000000000000000000059
:40674000000000000000000000000000000000000000000000000000000000000000000000000000000F0072380F0000000000000000000000000000000000000000000051
:40678000000000000F007238000000000C00000000000000000000000C0000000A00000000000000000000000A000A0000000000000000000000000000000000800000006A
:4067C0000000000000000000000000000000000000000000000000000000000000000000000000000000000000000000000000000000000000000000000000000000000099
:4068000000000000000000000000000000000000000000000000000000000000000000000000004000000000000000000000000000000000800000008000004000000000D8
:406840000000000000000000000000000000000000000000000000000000000000000000040800000000000000000000000000000800000000000000000000000000000004
:406880000000000000000000000004000800000000000300000000000A000000000000000000000000000000000000000000000000000000000000000000000000000000BF
:4068C000040000000000000000000000000000000008000000000000000000000000000000000000000000000000000000000000000000000000000000000000000000008C
:406900000000000000000000000000000000000000000000000000000000000000000000000000000000000000000000000000000000000000000000000000000000000057
:4069400004000000000000000000000000000000000800000000000000000000000000000000400000000000000000000000000000000000000000000000000000000000CB
:4069800000000000000000000000000000000000000000000000000000000200000000000000000000000000000000000000000000000000000000000000000000000000D5
:4069C000000000000000000000000000000000000000000000000000000000000000000000000000000000000000000000000000000800000000000000000000000000008F
:406A000000000000000000000000000000000000000000000000000000000000000000000000000000000000000000004000000000000000000000000000000000004000D6
:406A400044000000000000000000000000000000000000000100000000000000000000000000000000000000000000000000000000000000000000000000000001000000D0
:406A80000000000000000000000000000000000000000000000000000000000000000000000000000000000000000000000000000000000000000000000040000000000096
:406AC0000000000000000000000000000000000000000000000000000000000000000000000000000000000000000000000000000000000000000000000000000000000096
:406B00000000000000000000000100000100000000000000000000000000000000000000000000000000000000000000000000000000000000010000000000000000000052
:406B400044000000000000000000000000000000000000000000000000000000000000000000000000000000000000000000040000000000000000000000000000000000CD
:406B800000000300000000000000000000000000010000000000000000000000000000000000000000000000000000000000000000000000000000000000000000000000D1
:406BC0000000000000000000000000000000000000000000000000000000000000000000000000000000000000000000000000000000000000000000000000000000000095
:406C00000000000000000000000000000000000000000000000000000000000000000000000000000000000044000000000000000000000000000000000000000000000010
:406C40000000000000000000000000000000000000000000000000000000000000000000000000000000000000000000000000000000000000000000000000000000000014
:406C80000000000000000000000005000000000000000000000000000000000000000000000000000000000000000000940000804010000000000822024804008A00000861
:406CC00000500000148500204810019780402D00000000010014010200800000000009A000000000AA0000000000000104004100000080010080080100000000000800006B
:406D000000000000000100000200000000000000000080480050040000000000DC000008000000000000000000000000020020000000004012000000000041000200C000D9
:406D40000000000200000000000000000000000014000000000000008000001000000000000000000000000000000000CF00F700CF00000000001F000F008F000D000C0002
:406D800000008100B0000000000000000000000000000000000000005000000000000000000000000000000000000000000000000000000000000000000000000000000052
:406DC0000000000000000000000000000000000000000000000000000000001000000000000100000000000000000000000000000000000000000000000000000000000082
:406E000000000000000000000000000000000000000002000000000010000000000000000000000000000000000000002800000100140001020014020000120810000020A0
:406E4000100800200A1054200048020080004508000020210040048000002028208001000000002180000004000010800008000000002020000400000400000800040008AE
:406E80008000044000000000000000590000000000000000000000000000000000000000000000000000000000000000000004010000000040002440020400008000000482
:406EC0000000000000000000400000002080008040000000000000000000000000000000060440000000000000000000E700EF006600000000006B00AD003A006200200098
:406F00000000F00000000000000000000000000000000000000000000000000000000000000000000000000000000000000000000000000000000000000000000000000061
:406F40000000000000000000000100100000000000000000000000000000000000000000000000000000000000000000000000000000000000000000000000000000000000
:406F800000000000000000000000000000000000000000000000000000000000000000000000000000000000000000008080010040120010000061040150200030800000E8
:406FC000000100048000419200102020000005042810A6000004010202100000080011800000244000004004100004800480000000000000008400000000102028000000B4
:4070000000C04000520008000000000000000000200010010000000000000000000000000000000000000000000000000000000000000000000000000000000050B10401BF
:40704000280002002102105400000000020000400010822000120040000000000000004800A000020000000000000000F100FF003100000000003B007F007A000C002800A6
:4070800000000F0070000000000000000000000000000000000000000000000000000000000000000000000000000000000000000000000000000000000000000000000051
:4070C0000000000000000000000000000000000000000000000000000000000000000000000000000000000000000000000000000000000000000000000000000000000090
:407100000000000000000000000000000000000000000000000000000100000000000000000000000000000000000000000000402800004000000200082A004280000001AF
:407140000200002900002002002229000000000014002100000000000800005200000000000006602000002004200240400000240000000000A6000000000000800014003E
:4071800000000000001440020000200000400000000000000000000002100400000000000000022900000201000000000000100000000000840000000200200040A14000FE
:4071C00028000100216000140402044000080040002083200000000100000000000000000400400000000000000000007800F100F00000000000F000F000F00007000C00FB
:4072000000002F00080000000000000000000000040000000100000000000000000000000000000000000000000000002041002028000040810000004000010800902000AF
